{
  "contractName": "CodeContract",
  "abi": [
    {
      "inputs": [],
      "payable": false,
      "stateMutability": "nonpayable",
      "type": "constructor"
    },
    {
      "anonymous": false,
      "inputs": [
        {
          "indexed": false,
          "internalType": "uint256",
          "name": "transaction_id",
          "type": "uint256"
        },
        {
          "indexed": false,
          "internalType": "uint256",
          "name": "product_id",
          "type": "uint256"
        }
      ],
      "name": "Purchase",
      "type": "event"
    },
    {
      "constant": true,
      "inputs": [],
      "name": "buyerCount",
      "outputs": [
        {
          "internalType": "uint256",
          "name": "",
          "type": "uint256"
        }
      ],
      "payable": false,
      "stateMutability": "view",
      "type": "function"
    },
    {
      "constant": true,
      "inputs": [
        {
          "internalType": "uint256",
          "name": "",
          "type": "uint256"
        }
      ],
      "name": "buyers",
      "outputs": [
        {
          "internalType": "uint256",
          "name": "id",
          "type": "uint256"
        },
        {
          "internalType": "address payable",
          "name": "public_address",
          "type": "address"
        },
        {
          "internalType": "uint256",
          "name": "purchaseCount",
          "type": "uint256"
        }
      ],
      "payable": false,
      "stateMutability": "view",
      "type": "function"
    },
    {
      "constant": true,
      "inputs": [],
      "name": "productCount",
      "outputs": [
        {
          "internalType": "uint256",
          "name": "",
          "type": "uint256"
        }
      ],
      "payable": false,
      "stateMutability": "view",
      "type": "function"
    },
    {
      "constant": true,
      "inputs": [
        {
          "internalType": "uint256",
          "name": "",
          "type": "uint256"
        }
      ],
      "name": "products",
      "outputs": [
        {
          "internalType": "string",
          "name": "name",
          "type": "string"
        },
        {
          "internalType": "string",
          "name": "description",
          "type": "string"
        },
        {
          "internalType": "string",
          "name": "img",
          "type": "string"
        },
        {
          "internalType": "uint256",
          "name": "price",
          "type": "uint256"
        },
        {
          "internalType": "bool",
          "name": "active",
          "type": "bool"
        },
        {
          "internalType": "uint256",
          "name": "id",
          "type": "uint256"
        },
        {
          "internalType": "uint256",
          "name": "seller_id",
          "type": "uint256"
        },
        {
          "internalType": "uint256",
          "name": "transactionCount",
          "type": "uint256"
        }
      ],
      "payable": false,
      "stateMutability": "view",
      "type": "function"
    },
    {
      "constant": true,
      "inputs": [],
      "name": "sellerCount",
      "outputs": [
        {
          "internalType": "uint256",
          "name": "",
          "type": "uint256"
        }
      ],
      "payable": false,
      "stateMutability": "view",
      "type": "function"
    },
    {
      "constant": true,
      "inputs": [
        {
          "internalType": "uint256",
          "name": "",
          "type": "uint256"
        }
      ],
      "name": "sellers",
      "outputs": [
        {
          "internalType": "address payable",
          "name": "public_address",
          "type": "address"
        },
        {
          "internalType": "uint256",
          "name": "id",
          "type": "uint256"
        },
        {
          "internalType": "uint256",
          "name": "productTotal",
          "type": "uint256"
        }
      ],
      "payable": false,
      "stateMutability": "view",
      "type": "function"
    },
    {
      "constant": true,
      "inputs": [],
      "name": "transactionCount",
      "outputs": [
        {
          "internalType": "uint256",
          "name": "",
          "type": "uint256"
        }
      ],
      "payable": false,
      "stateMutability": "view",
      "type": "function"
    },
    {
      "constant": true,
      "inputs": [
        {
          "internalType": "uint256",
          "name": "",
          "type": "uint256"
        }
      ],
      "name": "transactions",
      "outputs": [
        {
          "internalType": "uint256",
          "name": "id",
          "type": "uint256"
        },
        {
          "internalType": "uint256",
          "name": "buyer_id",
          "type": "uint256"
        },
        {
          "internalType": "uint256",
          "name": "product_id",
          "type": "uint256"
        },
        {
          "internalType": "enum CodeContract.State",
          "name": "state",
          "type": "uint8"
        }
      ],
      "payable": false,
      "stateMutability": "view",
      "type": "function"
    },
    {
      "constant": false,
      "inputs": [
        {
          "internalType": "uint256",
          "name": "product_id",
          "type": "uint256"
        }
      ],
      "name": "buyProduct",
      "outputs": [],
      "payable": true,
      "stateMutability": "payable",
      "type": "function"
    },
    {
      "constant": false,
      "inputs": [
        {
          "internalType": "uint256",
          "name": "transaction_id",
          "type": "uint256"
        }
      ],
      "name": "approveTransaction",
      "outputs": [],
      "payable": false,
      "stateMutability": "nonpayable",
      "type": "function"
    },
    {
      "constant": false,
      "inputs": [
        {
          "internalType": "uint256",
          "name": "transaction_id",
          "type": "uint256"
        }
      ],
      "name": "cancelTransaction",
      "outputs": [],
      "payable": false,
      "stateMutability": "nonpayable",
      "type": "function"
    },
    {
      "constant": false,
      "inputs": [
        {
          "internalType": "uint256",
          "name": "product_id",
          "type": "uint256"
        },
        {
          "internalType": "int256",
          "name": "score",
          "type": "int256"
        }
      ],
      "name": "updateRating",
      "outputs": [],
      "payable": false,
      "stateMutability": "nonpayable",
      "type": "function"
    },
    {
      "constant": true,
      "inputs": [
        {
          "internalType": "uint256",
          "name": "product_id",
          "type": "uint256"
        }
      ],
      "name": "getProductRating",
      "outputs": [
        {
          "internalType": "int256",
          "name": "",
          "type": "int256"
        }
      ],
      "payable": false,
      "stateMutability": "view",
      "type": "function"
    },
    {
      "constant": true,
      "inputs": [
        {
          "internalType": "uint256",
          "name": "product_id",
          "type": "uint256"
        }
      ],
      "name": "getProductById",
      "outputs": [
        {
          "internalType": "string",
          "name": "",
          "type": "string"
        },
        {
          "internalType": "string",
          "name": "",
          "type": "string"
        },
        {
          "internalType": "uint256",
          "name": "",
          "type": "uint256"
        },
        {
          "internalType": "bool",
          "name": "",
          "type": "bool"
        },
        {
          "internalType": "uint256",
          "name": "",
          "type": "uint256"
        },
        {
          "internalType": "int256",
          "name": "",
          "type": "int256"
        },
        {
          "internalType": "string",
          "name": "",
          "type": "string"
        }
      ],
      "payable": false,
      "stateMutability": "view",
      "type": "function"
    },
    {
      "constant": true,
      "inputs": [
        {
          "internalType": "uint256",
          "name": "product_id",
          "type": "uint256"
        }
      ],
      "name": "getNumOfPurchase",
      "outputs": [
        {
          "internalType": "int256",
          "name": "",
          "type": "int256"
        }
      ],
      "payable": false,
      "stateMutability": "view",
      "type": "function"
    },
    {
      "constant": true,
      "inputs": [
        {
          "internalType": "uint256",
          "name": "sid",
          "type": "uint256"
        }
      ],
      "name": "getTIndex",
      "outputs": [
        {
          "internalType": "uint256",
          "name": "",
          "type": "uint256"
        }
      ],
      "payable": false,
      "stateMutability": "view",
      "type": "function"
    },
    {
      "constant": true,
      "inputs": [
        {
          "internalType": "uint256",
          "name": "buyer_id",
          "type": "uint256"
        }
      ],
      "name": "getBuyerById",
      "outputs": [
        {
          "internalType": "uint256",
          "name": "",
          "type": "uint256"
        },
        {
          "internalType": "address",
          "name": "",
          "type": "address"
        }
      ],
      "payable": false,
      "stateMutability": "view",
      "type": "function"
    },
    {
      "constant": true,
      "inputs": [
        {
          "internalType": "uint256",
          "name": "buyer_id",
          "type": "uint256"
        },
        {
          "internalType": "uint256",
          "name": "purchaseCount",
          "type": "uint256"
        }
      ],
      "name": "getProductPurchased",
      "outputs": [
        {
          "internalType": "string",
          "name": "",
          "type": "string"
        },
        {
          "internalType": "string",
          "name": "",
          "type": "string"
        },
        {
          "internalType": "uint256",
          "name": "",
          "type": "uint256"
        },
        {
          "internalType": "bool",
          "name": "",
          "type": "bool"
        },
        {
          "internalType": "uint256",
          "name": "",
          "type": "uint256"
        },
        {
          "internalType": "int256",
          "name": "",
          "type": "int256"
        },
        {
          "internalType": "string",
          "name": "",
          "type": "string"
        }
      ],
      "payable": false,
      "stateMutability": "view",
      "type": "function"
    },
    {
      "constant": true,
      "inputs": [
        {
          "internalType": "uint256",
          "name": "seller_id",
          "type": "uint256"
        }
      ],
      "name": "getSellerById",
      "outputs": [
        {
          "internalType": "uint256",
          "name": "",
          "type": "uint256"
        },
        {
          "internalType": "address",
          "name": "",
          "type": "address"
        },
        {
          "internalType": "int256",
          "name": "",
          "type": "int256"
        }
      ],
      "payable": false,
      "stateMutability": "view",
      "type": "function"
    },
    {
      "constant": true,
      "inputs": [
        {
          "internalType": "uint256",
          "name": "transaction_id",
          "type": "uint256"
        }
      ],
      "name": "getTransactionById",
      "outputs": [
        {
          "internalType": "uint256",
          "name": "",
          "type": "uint256"
        },
        {
          "internalType": "uint256",
          "name": "",
          "type": "uint256"
        },
        {
          "internalType": "uint256",
          "name": "",
          "type": "uint256"
        },
        {
          "internalType": "enum CodeContract.State",
          "name": "",
          "type": "uint8"
        }
      ],
      "payable": false,
      "stateMutability": "view",
      "type": "function"
    },
    {
      "constant": false,
      "inputs": [],
      "name": "registerBuyer",
      "outputs": [],
      "payable": false,
      "stateMutability": "nonpayable",
      "type": "function"
    },
    {
      "constant": false,
      "inputs": [],
      "name": "registerSeller",
      "outputs": [],
      "payable": false,
      "stateMutability": "nonpayable",
      "type": "function"
    },
    {
      "constant": false,
      "inputs": [
        {
          "internalType": "string",
          "name": "name",
          "type": "string"
        },
        {
          "internalType": "string",
          "name": "description",
          "type": "string"
        },
        {
          "internalType": "string",
          "name": "img",
          "type": "string"
        },
        {
          "internalType": "uint256",
          "name": "price",
          "type": "uint256"
        },
        {
          "internalType": "uint256",
          "name": "seller_id",
          "type": "uint256"
        }
      ],
      "name": "registerProduct",
      "outputs": [],
      "payable": false,
      "stateMutability": "nonpayable",
      "type": "function"
    },
    {
      "constant": true,
      "inputs": [],
      "name": "getBalance",
      "outputs": [
        {
          "internalType": "uint256",
          "name": "",
          "type": "uint256"
        }
      ],
      "payable": false,
      "stateMutability": "view",
      "type": "function"
    },
    {
      "constant": true,
      "inputs": [],
      "name": "getMyBalance",
      "outputs": [
        {
          "internalType": "uint256",
          "name": "",
          "type": "uint256"
        }
      ],
      "payable": false,
      "stateMutability": "view",
      "type": "function"
    }
  ],
  "bytecode": "0x60806040526000805560006001556000600255600060035534801561002357600080fd5b5033600860006101000a81548173ffffffffffffffffffffffffffffffffffffffff021916908373ffffffffffffffffffffffffffffffffffffffff16021790555033600960006101000a81548173ffffffffffffffffffffffffffffffffffffffff021916908373ffffffffffffffffffffffffffffffffffffffff160217905550612771806100b56000396000f3fe6080604052600436106101665760003560e01c80637acc0b20116100d1578063b77bf6001161008a578063e0f6ef8711610064578063e0f6ef8714610d26578063e8726c6414610d51578063f2aa821814610d96578063f4b30eaf14610e1f57610166565b8063b77bf60014610a68578063c526608414610a93578063cee26ed514610c9d57610166565b80637acc0b201461074a5780638642269e146108fd5780639ace38c21461092b5780639d0ec3801461099d5780639e0cea0514610a26578063a365a85e14610a5157610166565b806348e5ff6d1161012357806348e5ff6d146104565780634c738909146104d85780634e261c9e146105035780634f84757c1461055257806352c9224c1461070857806359fa9b1f1461071f57610166565b806312065fe01461016b578063242232d1146101965780632ee0bcf7146101d15780633380c0d814610220578063387e059b1461025b5780633f70c2b4146102aa575b600080fd5b34801561017757600080fd5b50610180610e91565b6040518082815260200191505060405180910390f35b3480156101a257600080fd5b506101cf600480360360208110156101b957600080fd5b8101908080359060200190929190505050610eb0565b005b3480156101dd57600080fd5b5061020a600480360360208110156101f457600080fd5b81019080803590602001909291905050506112e3565b6040518082815260200191505060405180910390f35b34801561022c57600080fd5b506102596004803603602081101561024357600080fd5b81019080803590602001909291905050506114cb565b005b34801561026757600080fd5b506102946004803603602081101561027e57600080fd5b810190808035906020019092919050505061166f565b6040518082815260200191505060405180910390f35b3480156102b657600080fd5b506102e3600480360360208110156102cd57600080fd5b81019080803590602001909291905050506116c9565b604051808060200180602001888152602001871515151581526020018681526020018581526020018060200184810384528b818151815260200191508051906020019080838360005b8381101561034757808201518184015260208101905061032c565b50505050905090810190601f1680156103745780820380516001836020036101000a031916815260200191505b5084810383528a818151815260200191508051906020019080838360005b838110156103ad578082015181840152602081019050610392565b50505050905090810190601f1680156103da5780820380516001836020036101000a031916815260200191505b50848103825285818151815260200191508051906020019080838360005b838110156104135780820151818401526020810190506103f8565b50505050905090810190601f1680156104405780820380516001836020036101000a031916815260200191505b509a505050505050505050505060405180910390f35b34801561046257600080fd5b5061048f6004803603602081101561047957600080fd5b810190808035906020019092919050505061195e565b604051808381526020018273ffffffffffffffffffffffffffffffffffffffff1673ffffffffffffffffffffffffffffffffffffffff1681526020019250505060405180910390f35b3480156104e457600080fd5b506104ed6119a5565b6040518082815260200191505060405180910390f35b34801561050f57600080fd5b5061053c6004803603602081101561052657600080fd5b81019080803590602001909291905050506119c4565b6040518082815260200191505060405180910390f35b34801561055e57600080fd5b506105956004803603604081101561057557600080fd5b810190808035906020019092919080359060200190929190505050611a5c565b604051808060200180602001888152602001871515151581526020018681526020018581526020018060200184810384528b818151815260200191508051906020019080838360005b838110156105f95780820151818401526020810190506105de565b50505050905090810190601f1680156106265780820380516001836020036101000a031916815260200191505b5084810383528a818151815260200191508051906020019080838360005b8381101561065f578082015181840152602081019050610644565b50505050905090810190601f16801561068c5780820380516001836020036101000a031916815260200191505b50848103825285818151815260200191508051906020019080838360005b838110156106c55780820151818401526020810190506106aa565b50505050905090810190601f1680156106f25780820380516001836020036101000a031916815260200191505b509a505050505050505050505060405180910390f35b34801561071457600080fd5b5061071d611ab1565b005b34801561072b57600080fd5b50610734611bf9565b6040518082815260200191505060405180910390f35b34801561075657600080fd5b506107836004803603602081101561076d57600080fd5b8101908080359060200190929190505050611bff565b604051808060200180602001806020018981526020018815151515815260200187815260200186815260200185815260200184810384528c818151815260200191508051906020019080838360005b838110156107ed5780820151818401526020810190506107d2565b50505050905090810190601f16801561081a5780820380516001836020036101000a031916815260200191505b5084810383528b818151815260200191508051906020019080838360005b83811015610853578082015181840152602081019050610838565b50505050905090810190601f1680156108805780820380516001836020036101000a031916815260200191505b5084810382528a818151815260200191508051906020019080838360005b838110156108b957808201518184015260208101905061089e565b50505050905090810190601f1680156108e65780820380516001836020036101000a031916815260200191505b509b50505050505050505050505060405180910390f35b6109296004803603602081101561091357600080fd5b8101908080359060200190929190505050611e1c565b005b34801561093757600080fd5b506109646004803603602081101561094e57600080fd5b8101908080359060200190929190505050611fac565b6040518085815260200184815260200183815260200182600281111561098657fe5b60ff16815260200194505050505060405180910390f35b3480156109a957600080fd5b506109d6600480360360208110156109c057600080fd5b8101908080359060200190929190505050611fe9565b604051808481526020018373ffffffffffffffffffffffffffffffffffffffff1673ffffffffffffffffffffffffffffffffffffffff168152602001828152602001935050505060405180910390f35b348015610a3257600080fd5b50610a3b612087565b6040518082815260200191505060405180910390f35b348015610a5d57600080fd5b50610a6661208d565b005b348015610a7457600080fd5b50610a7d6121d4565b6040518082815260200191505060405180910390f35b348015610a9f57600080fd5b50610c9b600480360360a0811015610ab657600080fd5b8101908080359060200190640100000000811115610ad357600080fd5b820183602082011115610ae557600080fd5b80359060200191846001830284011164010000000083111715610b0757600080fd5b91908080601f016020809104026020016040519081016040528093929190818152602001838380828437600081840152601f19601f82011690508083019250505050505050919291929080359060200190640100000000811115610b6a57600080fd5b820183602082011115610b7c57600080fd5b80359060200191846001830284011164010000000083111715610b9e57600080fd5b91908080601f016020809104026020016040519081016040528093929190818152602001838380828437600081840152601f19601f82011690508083019250505050505050919291929080359060200190640100000000811115610c0157600080fd5b820183602082011115610c1357600080fd5b80359060200191846001830284011164010000000083111715610c3557600080fd5b91908080601f016020809104026020016040519081016040528093929190818152602001838380828437600081840152601f19601f82011690508083019250505050505050919291929080359060200190929190803590602001909291905050506121da565b005b348015610ca957600080fd5b50610cd660048036036020811015610cc057600080fd5b81019080803590602001909291905050506123c2565b604051808473ffffffffffffffffffffffffffffffffffffffff1673ffffffffffffffffffffffffffffffffffffffff168152602001838152602001828152602001935050505060405180910390f35b348015610d3257600080fd5b50610d3b61240c565b6040518082815260200191505060405180910390f35b348015610d5d57600080fd5b50610d9460048036036040811015610d7457600080fd5b810190808035906020019092919080359060200190929190505050612412565b005b348015610da257600080fd5b50610dcf60048036036020811015610db957600080fd5b810190808035906020019092919050505061256b565b604051808481526020018373ffffffffffffffffffffffffffffffffffffffff1673ffffffffffffffffffffffffffffffffffffffff168152602001828152602001935050505060405180910390f35b348015610e2b57600080fd5b50610e5860048036036020811015610e4257600080fd5b81019080803590602001909291905050506125b5565b60405180858152602001848152602001838152602001826002811115610e7a57fe5b60ff16815260200194505050505060405180910390f35b60003073ffffffffffffffffffffffffffffffffffffffff1631905090565b600860009054906101000a900473ffffffffffffffffffffffffffffffffffffffff1673ffffffffffffffffffffffffffffffffffffffff163373ffffffffffffffffffffffffffffffffffffffff1614610f0a57600080fd5b6000600460006007600085815260200190815260200160002060010154815260200190815260200160002090506007600083815260200190815260200160002060020154816003016000836002015481526020019081526020016000208190555060018160020160008282540192505081905550610f8661261d565b600660006007600086815260200190815260200160002060020154815260200190815260200160002060405180610100016040529081600082018054600181600116156101000203166002900480601f0160208091040260200160405190810160405280929190818152602001828054600181600116156101000203166002900480156110545780601f1061102957610100808354040283529160200191611054565b820191906000526020600020905b81548152906001019060200180831161103757829003601f168201915b50505050508152602001600182018054600181600116156101000203166002900480601f0160208091040260200160405190810160405280929190818152602001828054600181600116156101000203166002900480156110f65780601f106110cb576101008083540402835291602001916110f6565b820191906000526020600020905b8154815290600101906020018083116110d957829003601f168201915b50505050508152602001600282018054600181600116156101000203166002900480601f0160208091040260200160405190810160405280929190818152602001828054600181600116156101000203166002900480156111985780601f1061116d57610100808354040283529160200191611198565b820191906000526020600020905b81548152906001019060200180831161117b57829003601f168201915b50505050508152602001600382015481526020016004820160009054906101000a900460ff16151515158152602001600582015481526020016006820154815260200160078201548152505090506001600660006007600087815260200190815260200160002060020154815260200190815260200160002060070160008282540192505081905550600560008260c00151815260200190815260200160002060000160009054906101000a900473ffffffffffffffffffffffffffffffffffffffff1673ffffffffffffffffffffffffffffffffffffffff166108fc82606001519081150290604051600060405180830381858888f193505050501580156112a5573d6000803e3d6000fd5b5060016007600085815260200190815260200160002060030160006101000a81548160ff021916908360028111156112d957fe5b0217905550505050565b600080600560008481526020019081526020016000206002015490506060600182016040519080825280602002602001820160405280156113335781602001602082028038833980820191505090505b50905060008090505b600560008681526020019081526020016000206002015481101561145a5760056000868152602001908152602001600020600201546006600060056000898152602001908152602001600020600301600085815260200190815260200160002054815260200190815260200160002060070154106113ef576001826005600088815260200190815260200160002060020154815181106113d857fe5b60200260200101818151019150818152505061144d565b60018260066000600560008a81526020019081526020016000206003016000868152602001908152602001600020548152602001908152602001600020600701548151811061143a57fe5b6020026020010181815101915081815250505b808060010191505061133c565b5060008090506000600560008781526020019081526020016000206002015490505b600081106114bd5782818151811061149057fe5b6020026020010151820191508082106114af57809450505050506114c6565b80806001900391505061147c565b50600093505050505b919050565b600860009054906101000a900473ffffffffffffffffffffffffffffffffffffffff1673ffffffffffffffffffffffffffffffffffffffff163373ffffffffffffffffffffffffffffffffffffffff161461152557600080fd5b61152d612664565b600760008381526020019081526020016000206040518060800160405290816000820154815260200160018201548152602001600282015481526020016003820160009054906101000a900460ff16600281111561158757fe5b600281111561159257fe5b815250509050600460008260200151815260200190815260200160002060010160009054906101000a900473ffffffffffffffffffffffffffffffffffffffff1673ffffffffffffffffffffffffffffffffffffffff166108fc6006600084604001518152602001908152602001600020600301549081150290604051600060405180830381858888f19350505050158015611632573d6000803e3d6000fd5b5060026007600084815260200190815260200160002060030160006101000a81548160ff0219169083600281111561166657fe5b02179055505050565b6000806000905060008090505b6000548110156116bf576006600085815260200190815260200160002060080160008281526020019081526020016000205482019150808060010191505061167c565b5080915050919050565b606080600080600080606060066000898152602001908152602001600020600001600660008a8152602001908152602001600020600101600660008b815260200190815260200160002060030154600660008c815260200190815260200160002060040160009054906101000a900460ff16600660008d81526020019081526020016000206006015461175b8d61166f565b600660008f8152602001908152602001600020600201868054600181600116156101000203166002900480601f0160208091040260200160405190810160405280929190818152602001828054600181600116156101000203166002900480156118065780601f106117db57610100808354040283529160200191611806565b820191906000526020600020905b8154815290600101906020018083116117e957829003601f168201915b50505050509650858054600181600116156101000203166002900480601f0160208091040260200160405190810160405280929190818152602001828054600181600116156101000203166002900480156118a25780601f10611877576101008083540402835291602001916118a2565b820191906000526020600020905b81548152906001019060200180831161188557829003601f168201915b50505050509550808054600181600116156101000203166002900480601f01602080910402602001604051908101604052809291908181526020018280546001816001161561010002031660029004801561193e5780601f106119135761010080835404028352916020019161193e565b820191906000526020600020905b81548152906001019060200180831161192157829003601f168201915b505050505090509650965096509650965096509650919395979092949650565b600080826004600085815260200190815260200160002060010160009054906101000a900473ffffffffffffffffffffffffffffffffffffffff1680905091509150915091565b60003373ffffffffffffffffffffffffffffffffffffffff1631905090565b6000806000905060008090505b600354811015611a5257836007600083815260200190815260200160002060020154148015611a39575060016002811115611a0857fe5b6007600083815260200190815260200160002060030160009054906101000a900460ff166002811115611a3757fe5b145b15611a45576001820191505b80806001019150506119d1565b5080915050919050565b6060806000806000806060611a97600460008b815260200190815260200160002060030160008a8152602001908152602001600020546116c9565b965096509650965096509650965092959891949750929550565b60008090505b600154811015611b3e573373ffffffffffffffffffffffffffffffffffffffff166005600083815260200190815260200160002060000160009054906101000a900473ffffffffffffffffffffffffffffffffffffffff1673ffffffffffffffffffffffffffffffffffffffff161415611b315750611bf7565b8080600101915050611ab7565b5060405180606001604052803373ffffffffffffffffffffffffffffffffffffffff1681526020016001548152602001600081525060056000600154815260200190815260200160002060008201518160000160006101000a81548173ffffffffffffffffffffffffffffffffffffffff021916908373ffffffffffffffffffffffffffffffffffffffff1602179055506020820151816001015560408201518160020155905050600180600082825401925050819055505b565b60015481565b6006602052806000526040600020600091509050806000018054600181600116156101000203166002900480601f016020809104026020016040519081016040528092919081815260200182805460018160011615610100020316600290048015611cab5780601f10611c8057610100808354040283529160200191611cab565b820191906000526020600020905b815481529060010190602001808311611c8e57829003601f168201915b505050505090806001018054600181600116156101000203166002900480601f016020809104026020016040519081016040528092919081815260200182805460018160011615610100020316600290048015611d495780601f10611d1e57610100808354040283529160200191611d49565b820191906000526020600020905b815481529060010190602001808311611d2c57829003601f168201915b505050505090806002018054600181600116156101000203166002900480601f016020809104026020016040519081016040528092919081815260200182805460018160011615610100020316600290048015611de75780601f10611dbc57610100808354040283529160200191611de7565b820191906000526020600020905b815481529060010190602001808311611dca57829003601f168201915b5050505050908060030154908060040160009054906101000a900460ff16908060050154908060060154908060070154905088565b60008090505b600054811015611fa7573373ffffffffffffffffffffffffffffffffffffffff166004600083815260200190815260200160002060010160009054906101000a900473ffffffffffffffffffffffffffffffffffffffff1673ffffffffffffffffffffffffffffffffffffffff161415611f9a5760066000838152602001908152602001600020600301543410611f94576040518060800160405280600354815260200182815260200183815260200160006002811115611edf57fe5b81525060076000600354815260200190815260200160002060008201518160000155602082015181600101556040820151816002015560608201518160030160006101000a81548160ff02191690836002811115611f3957fe5b02179055509050507f350df6fcc944b226b77efc36902e19b43c566d75173622086e809d46dfbc222060035483604051808381526020018281526020019250505060405180910390a160016003600082825401925050819055505b50611fa9565b8080600101915050611e22565b505b50565b60076020528060005260406000206000915090508060000154908060010154908060020154908060030160009054906101000a900460ff16905084565b6000806000806000905060008090505b60025481101561203c57856006600083815260200190815260200160002060060154141561202f5761202a8161166f565b820191505b8080600101915050611ff9565b50846005600087815260200190815260200160002060000160009054906101000a900473ffffffffffffffffffffffffffffffffffffffff1682819150935093509350509193909250565b60005481565b60008090505b60005481101561211a573373ffffffffffffffffffffffffffffffffffffffff166004600083815260200190815260200160002060010160009054906101000a900473ffffffffffffffffffffffffffffffffffffffff1673ffffffffffffffffffffffffffffffffffffffff16141561210d57506121d2565b8080600101915050612093565b50604051806060016040528060005481526020013373ffffffffffffffffffffffffffffffffffffffff168152602001600081525060046000805481526020019081526020016000206000820151816000015560208201518160010160006101000a81548173ffffffffffffffffffffffffffffffffffffffff021916908373ffffffffffffffffffffffffffffffffffffffff16021790555060408201518160020155905050600160008082825401925050819055505b565b60035481565b600860009054906101000a900473ffffffffffffffffffffffffffffffffffffffff1673ffffffffffffffffffffffffffffffffffffffff163373ffffffffffffffffffffffffffffffffffffffff161461223457600080fd5b6040518061010001604052808681526020018581526020018481526020018381526020016001151581526020016002548152602001828152602001600081525060066000600254815260200190815260200160002060008201518160000190805190602001906122a5929190612697565b5060208201518160010190805190602001906122c2929190612697565b5060408201518160020190805190602001906122df929190612697565b506060820151816003015560808201518160040160006101000a81548160ff02191690831515021790555060a0820151816005015560c0820151816006015560e082015181600701559050506006600060025481526020019081526020016000206005015460056000838152602001908152602001600020600301600060056000858152602001908152602001600020600201548152602001908152602001600020819055506001600260008282540192505081905550600160056000838152602001908152602001600020600201600082825401925050819055505050505050565b60056020528060005260406000206000915090508060000160009054906101000a900473ffffffffffffffffffffffffffffffffffffffff16908060010154908060020154905083565b60025481565b6001811415801561244357507fffffffffffffffffffffffffffffffffffffffffffffffffffffffffffffffff8114155b1561244d57612567565b60008090505b600054811015612565573373ffffffffffffffffffffffffffffffffffffffff166004600083815260200190815260200160002060010160009054906101000a900473ffffffffffffffffffffffffffffffffffffffff1673ffffffffffffffffffffffffffffffffffffffff1614156125585760008090505b600354811015612556578160076000838152602001908152602001600020600101541480156125115750836007600083815260200190815260200160002060020154145b156125495782600660008681526020019081526020016000206008016000848152602001908152602001600020819055505050612567565b80806001019150506124cd565b505b8080600101915050612453565b505b5050565b60046020528060005260406000206000915090508060000154908060010160009054906101000a900473ffffffffffffffffffffffffffffffffffffffff16908060020154905083565b60008060008084600760008781526020019081526020016000206001015460076000888152602001908152602001600020600201546007600089815260200190815260200160002060030160009054906101000a900460ff1693509350935093509193509193565b604051806101000160405280606081526020016060815260200160608152602001600081526020016000151581526020016000815260200160008152602001600081525090565b60405180608001604052806000815260200160008152602001600081526020016000600281111561269157fe5b81525090565b828054600181600116156101000203166002900490600052602060002090601f016020900481019282601f106126d857805160ff1916838001178555612706565b82800160010185558215612706579182015b828111156127055782518255916020019190600101906126ea565b5b5090506127139190612717565b5090565b61273991905b8082111561273557600081600090555060010161271d565b5090565b9056fea265627a7a72315820e519d89dd7e7f9f4eb36471720a953b20c82634cab5464337453d6b8c0d3770d64736f6c634300050c0032",
  "source": "pragma solidity ^0.5.11;\n\ncontract CodeContract {\n    uint256 public buyerCount = 0;\n    uint256 public sellerCount = 0;\n    uint256 public productCount = 0;\n    uint256 public transactionCount = 0;\n    \n    \n    mapping(uint => Buyer) public buyers;\n    mapping(uint => Seller) public sellers;\n    mapping(uint => Product) public products;\n    mapping(uint => Transaction) public transactions;\n    \n    address owner;\n    address payable wallet;\n    \n    struct Buyer {\n        uint   id;\n        address payable public_address;\n        uint purchaseCount;\n        mapping(uint => uint) purchases;\n    }\n\n    struct Seller {\n        address payable public_address;\n        uint id;\n        uint productTotal;\n        mapping(uint => uint) myproducts;\n    }\n\n    struct Product {\n        string name;\n        string description;\n        string img;\n        uint  price;\n        bool active;\n        uint id;\n        uint seller_id;\n        uint transactionCount;\n        mapping(uint => int) ratings;\n    }\n\n    enum State {Pending, Success, Fail}\n\n    struct Transaction {\n        uint id;\n        uint buyer_id;\n        uint product_id;\n        State state;\n    }\n\n    event Purchase(uint transaction_id, uint product_id);\n\n    constructor() public {\n        owner = msg.sender;\n        wallet = msg.sender;\n    }\n\n    modifier onlyOwner() {\n        require(msg.sender == owner);\n        _;\n    }\n\n    function buyProduct(uint product_id) public payable {\n        for (uint i = 0; i < buyerCount; i++) {\n            if (buyers[i].public_address == msg.sender) {\n                if(msg.value >= products[product_id].price) {\n                    transactions[transactionCount] = Transaction(transactionCount, i, product_id, State.Pending);\n                    emit Purchase(transactionCount, product_id);\n                    transactionCount += 1;\n                }\n                return;\n            }\n        }\n    }\n\n    function approveTransaction(uint transaction_id) public onlyOwner{\n        // Add purchase to user purchase list\n        Buyer storage b = buyers[transactions[transaction_id].buyer_id];\n        b.purchases[b.purchaseCount] = transactions[transaction_id].product_id;\n        b.purchaseCount += 1;\n\n        // Send money and update transaction list\n        Product memory p = products[transactions[transaction_id].product_id];\n        products[transactions[transaction_id].product_id].transactionCount += 1;\n        sellers[p.seller_id].public_address.transfer(p.price);\n        transactions[transaction_id].state = State.Success;\n    }\n\n    function cancelTransaction(uint transaction_id) public onlyOwner{\n        Transaction memory p = transactions[transaction_id];\n        buyers[p.buyer_id].public_address.transfer(products[p.product_id].price);\n        transactions[transaction_id].state = State.Fail;\n    }\n\n    function updateRating(uint product_id, int score) public {\n        if(score != 1 && score != -1) {\n            return;\n        }\n\n        for (uint i = 0; i < buyerCount; i++) {\n            if (buyers[i].public_address == msg.sender) {\n                for (uint j = 0; j < transactionCount; j++) {\n                    if (transactions[j].buyer_id == i && transactions[j].product_id == product_id) {\n                        products[product_id].ratings[i] = score;\n                        return;\n                    }\n                }\n            }\n        }\n    }\n\n    function getProductRating(uint product_id) public view returns (int){\n        int score = 0;\n        for (uint i = 0; i < buyerCount; i++) {\n            score += products[product_id].ratings[i];\n        }\n        return score;\n    }\n\n    function getProductById(uint product_id) public view returns (string memory,string memory,uint,bool,uint,int, string memory) {\n        return (products[product_id].name, products[product_id].description, products[product_id].price, products[product_id].active, products[product_id].seller_id, getProductRating(product_id), products[product_id].img);\n    }\n\n    function getNumOfPurchase(uint product_id) public view returns (int) {\n        int count = 0 ;\n        for (uint i = 0; i < transactionCount; i++) {\n            if(transactions[i].product_id == product_id && transactions[i].state == State.Success) {\n                 count += 1;\n            }\n        }\n        return count;\n    }\n\n    function getTIndex (uint sid) public view returns (uint) {\n        uint n = sellers[sid].productTotal;\n        uint[] memory buckets = new uint[](n+1);\n\n        for(uint i =0 ; i < sellers[sid].productTotal; i++) {\n            if(products[sellers[sid].myproducts[i]].transactionCount >= sellers[sid].productTotal) {\n                buckets[sellers[sid].productTotal] += 1;\n            } else {\n                buckets[products[sellers[sid].myproducts[i]].transactionCount] += 1;\n            }\n        }\n\n        uint count = 0;\n        for(uint i = sellers[sid].productTotal; i >= 0; i--) {\n            count += buckets[i];\n            if(count >= i) {\n                return i;\n            }\n        }\n        return 0;\n    }\n\n    function getBuyerById(uint buyer_id) public view returns (uint,address) {\n        return (buyer_id, buyers[buyer_id].public_address);\n    }\n\n    function getProductPurchased (uint buyer_id, uint purchaseCount) public view returns (string memory,string memory,uint,bool,uint,int,string memory) {\n        return getProductById(buyers[buyer_id].purchases[purchaseCount]);\n    }\n\n    function getSellerById(uint seller_id) public view returns (uint,address,int) {\n        int score = 0;\n        for (uint i = 0; i < productCount; i++) {\n            if(products[i].seller_id == seller_id) {\n                score += getProductRating(i);\n            }\n        }\n        return (seller_id, sellers[seller_id].public_address, score);\n    }\n\n    function getTransactionById(uint transaction_id) public view returns (uint,uint,uint,State) {\n        return (transaction_id, transactions[transaction_id].buyer_id, transactions[transaction_id].product_id, transactions[transaction_id].state);\n    }\n\n    function registerBuyer() public {\n        for (uint i = 0; i < buyerCount; i++) {\n            if (buyers[i].public_address == msg.sender) {\n                return;\n            }\n        }\n\n        buyers[buyerCount] = Buyer(buyerCount,msg.sender, 0);\n        buyerCount += 1;\n    }\n\n    function registerSeller() public {\n        for (uint i = 0; i < sellerCount; i++) {\n            if (sellers[i].public_address == msg.sender) {\n                return;\n            }\n        }\n\n        sellers[sellerCount] = Seller(msg.sender,sellerCount,0);\n        sellerCount += 1;\n    }\n\n    function registerProduct(string memory name, string memory description, string memory img, uint price, uint seller_id) public onlyOwner {\n        products[productCount] = Product(name, description, img, price, true, productCount, seller_id, 0);\n        sellers[seller_id].myproducts[sellers[seller_id].productTotal] = products[productCount].id;\n        productCount += 1;\n        sellers[seller_id].productTotal += 1;\n\n    }\n\n    function getBalance() public view returns(uint256) {\n        return address(this).balance;\n    }\n\n    function getMyBalance() public view returns(uint256) {\n        return msg.sender.balance;\n    }\n}",
  "sourcePath": "/Users/trido/Downloads/eth-voting-dapp/contracts/CodeContract.sol",
  "compiler": {
    "name": "solc",
    "version": "0.5.12+commit.7709ece9.Emscripten.clang"
  },
  "schemaVersion": "3.0.18",
  "updatedAt": "2019-11-19T20:42:58.852Z",
  "networkType": "ethereum",
  "devdoc": {
    "methods": {}
  },
  "userdoc": {
    "methods": {}
  }
}