{
  "contractName": "CodeContract",
  "abi": [
    {
      "inputs": [],
      "payable": false,
      "stateMutability": "nonpayable",
      "type": "constructor"
    },
    {
      "anonymous": false,
      "inputs": [
        {
          "indexed": false,
          "internalType": "uint256",
          "name": "transaction_id",
          "type": "uint256"
        },
        {
          "indexed": false,
          "internalType": "uint256",
          "name": "product_id",
          "type": "uint256"
        }
      ],
      "name": "Purchase",
      "type": "event"
    },
    {
      "constant": true,
      "inputs": [],
      "name": "buyerCount",
      "outputs": [
        {
          "internalType": "uint256",
          "name": "",
          "type": "uint256"
        }
      ],
      "payable": false,
      "stateMutability": "view",
      "type": "function"
    },
    {
      "constant": true,
      "inputs": [
        {
          "internalType": "uint256",
          "name": "",
          "type": "uint256"
        }
      ],
      "name": "buyers",
      "outputs": [
        {
          "internalType": "uint256",
          "name": "id",
          "type": "uint256"
        },
        {
          "internalType": "address payable",
          "name": "public_address",
          "type": "address"
        },
        {
          "internalType": "uint256",
          "name": "purchaseCount",
          "type": "uint256"
        }
      ],
      "payable": false,
      "stateMutability": "view",
      "type": "function"
    },
    {
      "constant": true,
      "inputs": [],
      "name": "productCount",
      "outputs": [
        {
          "internalType": "uint256",
          "name": "",
          "type": "uint256"
        }
      ],
      "payable": false,
      "stateMutability": "view",
      "type": "function"
    },
    {
      "constant": true,
      "inputs": [
        {
          "internalType": "uint256",
          "name": "",
          "type": "uint256"
        }
      ],
      "name": "products",
      "outputs": [
        {
          "internalType": "string",
          "name": "name",
          "type": "string"
        },
        {
          "internalType": "string",
          "name": "description",
          "type": "string"
        },
        {
          "internalType": "string",
          "name": "img",
          "type": "string"
        },
        {
          "internalType": "uint256",
          "name": "price",
          "type": "uint256"
        },
        {
          "internalType": "bool",
          "name": "active",
          "type": "bool"
        },
        {
          "internalType": "uint256",
          "name": "id",
          "type": "uint256"
        },
        {
          "internalType": "uint256",
          "name": "seller_id",
          "type": "uint256"
        }
      ],
      "payable": false,
      "stateMutability": "view",
      "type": "function"
    },
    {
      "constant": true,
      "inputs": [],
      "name": "sellerCount",
      "outputs": [
        {
          "internalType": "uint256",
          "name": "",
          "type": "uint256"
        }
      ],
      "payable": false,
      "stateMutability": "view",
      "type": "function"
    },
    {
      "constant": true,
      "inputs": [
        {
          "internalType": "uint256",
          "name": "",
          "type": "uint256"
        }
      ],
      "name": "sellers",
      "outputs": [
        {
          "internalType": "address payable",
          "name": "public_address",
          "type": "address"
        },
        {
          "internalType": "uint256",
          "name": "id",
          "type": "uint256"
        }
      ],
      "payable": false,
      "stateMutability": "view",
      "type": "function"
    },
    {
      "constant": true,
      "inputs": [],
      "name": "transactionCount",
      "outputs": [
        {
          "internalType": "uint256",
          "name": "",
          "type": "uint256"
        }
      ],
      "payable": false,
      "stateMutability": "view",
      "type": "function"
    },
    {
      "constant": true,
      "inputs": [
        {
          "internalType": "uint256",
          "name": "",
          "type": "uint256"
        }
      ],
      "name": "transactions",
      "outputs": [
        {
          "internalType": "uint256",
          "name": "id",
          "type": "uint256"
        },
        {
          "internalType": "uint256",
          "name": "buyer_id",
          "type": "uint256"
        },
        {
          "internalType": "uint256",
          "name": "product_id",
          "type": "uint256"
        },
        {
          "internalType": "enum CodeContract.State",
          "name": "state",
          "type": "uint8"
        }
      ],
      "payable": false,
      "stateMutability": "view",
      "type": "function"
    },
    {
      "constant": false,
      "inputs": [
        {
          "internalType": "uint256",
          "name": "product_id",
          "type": "uint256"
        }
      ],
      "name": "buyProduct",
      "outputs": [],
      "payable": true,
      "stateMutability": "payable",
      "type": "function"
    },
    {
      "constant": false,
      "inputs": [
        {
          "internalType": "uint256",
          "name": "transaction_id",
          "type": "uint256"
        }
      ],
      "name": "approveTransaction",
      "outputs": [],
      "payable": false,
      "stateMutability": "nonpayable",
      "type": "function"
    },
    {
      "constant": false,
      "inputs": [
        {
          "internalType": "uint256",
          "name": "transaction_id",
          "type": "uint256"
        }
      ],
      "name": "cancelTransaction",
      "outputs": [],
      "payable": false,
      "stateMutability": "nonpayable",
      "type": "function"
    },
    {
      "constant": false,
      "inputs": [
        {
          "internalType": "uint256",
          "name": "product_id",
          "type": "uint256"
        },
        {
          "internalType": "int256",
          "name": "score",
          "type": "int256"
        }
      ],
      "name": "updateRating",
      "outputs": [],
      "payable": false,
      "stateMutability": "nonpayable",
      "type": "function"
    },
    {
      "constant": true,
      "inputs": [
        {
          "internalType": "uint256",
          "name": "product_id",
          "type": "uint256"
        }
      ],
      "name": "getProductRating",
      "outputs": [
        {
          "internalType": "int256",
          "name": "",
          "type": "int256"
        }
      ],
      "payable": false,
      "stateMutability": "view",
      "type": "function"
    },
    {
      "constant": true,
      "inputs": [
        {
          "internalType": "uint256",
          "name": "product_id",
          "type": "uint256"
        }
      ],
      "name": "getProductById",
      "outputs": [
        {
          "internalType": "string",
          "name": "",
          "type": "string"
        },
        {
          "internalType": "string",
          "name": "",
          "type": "string"
        },
        {
          "internalType": "uint256",
          "name": "",
          "type": "uint256"
        },
        {
          "internalType": "bool",
          "name": "",
          "type": "bool"
        },
        {
          "internalType": "uint256",
          "name": "",
          "type": "uint256"
        },
        {
          "internalType": "int256",
          "name": "",
          "type": "int256"
        },
        {
          "internalType": "string",
          "name": "",
          "type": "string"
        }
      ],
      "payable": false,
      "stateMutability": "view",
      "type": "function"
    },
    {
      "constant": true,
      "inputs": [
        {
          "internalType": "uint256",
          "name": "buyer_id",
          "type": "uint256"
        }
      ],
      "name": "getBuyerById",
      "outputs": [
        {
          "internalType": "uint256",
          "name": "",
          "type": "uint256"
        },
        {
          "internalType": "address",
          "name": "",
          "type": "address"
        }
      ],
      "payable": false,
      "stateMutability": "view",
      "type": "function"
    },
    {
      "constant": true,
      "inputs": [
        {
          "internalType": "uint256",
          "name": "buyer_id",
          "type": "uint256"
        },
        {
          "internalType": "uint256",
          "name": "purchaseCount",
          "type": "uint256"
        }
      ],
      "name": "getProductPurchased",
      "outputs": [
        {
          "internalType": "string",
          "name": "",
          "type": "string"
        },
        {
          "internalType": "string",
          "name": "",
          "type": "string"
        },
        {
          "internalType": "uint256",
          "name": "",
          "type": "uint256"
        },
        {
          "internalType": "bool",
          "name": "",
          "type": "bool"
        },
        {
          "internalType": "uint256",
          "name": "",
          "type": "uint256"
        },
        {
          "internalType": "int256",
          "name": "",
          "type": "int256"
        },
        {
          "internalType": "string",
          "name": "",
          "type": "string"
        }
      ],
      "payable": false,
      "stateMutability": "view",
      "type": "function"
    },
    {
      "constant": true,
      "inputs": [
        {
          "internalType": "uint256",
          "name": "seller_id",
          "type": "uint256"
        }
      ],
      "name": "getSellerById",
      "outputs": [
        {
          "internalType": "uint256",
          "name": "",
          "type": "uint256"
        },
        {
          "internalType": "address",
          "name": "",
          "type": "address"
        },
        {
          "internalType": "int256",
          "name": "",
          "type": "int256"
        }
      ],
      "payable": false,
      "stateMutability": "view",
      "type": "function"
    },
    {
      "constant": true,
      "inputs": [
        {
          "internalType": "uint256",
          "name": "transaction_id",
          "type": "uint256"
        }
      ],
      "name": "getTransactionById",
      "outputs": [
        {
          "internalType": "uint256",
          "name": "",
          "type": "uint256"
        },
        {
          "internalType": "uint256",
          "name": "",
          "type": "uint256"
        },
        {
          "internalType": "uint256",
          "name": "",
          "type": "uint256"
        },
        {
          "internalType": "enum CodeContract.State",
          "name": "",
          "type": "uint8"
        }
      ],
      "payable": false,
      "stateMutability": "view",
      "type": "function"
    },
    {
      "constant": false,
      "inputs": [],
      "name": "registerBuyer",
      "outputs": [],
      "payable": false,
      "stateMutability": "nonpayable",
      "type": "function"
    },
    {
      "constant": false,
      "inputs": [],
      "name": "registerSeller",
      "outputs": [],
      "payable": false,
      "stateMutability": "nonpayable",
      "type": "function"
    },
    {
      "constant": false,
      "inputs": [
        {
          "internalType": "string",
          "name": "name",
          "type": "string"
        },
        {
          "internalType": "string",
          "name": "description",
          "type": "string"
        },
        {
          "internalType": "string",
          "name": "img",
          "type": "string"
        },
        {
          "internalType": "uint256",
          "name": "price",
          "type": "uint256"
        },
        {
          "internalType": "uint256",
          "name": "seller_id",
          "type": "uint256"
        }
      ],
      "name": "registerProduct",
      "outputs": [],
      "payable": false,
      "stateMutability": "nonpayable",
      "type": "function"
    },
    {
      "constant": true,
      "inputs": [],
      "name": "getBalance",
      "outputs": [
        {
          "internalType": "uint256",
          "name": "",
          "type": "uint256"
        }
      ],
      "payable": false,
      "stateMutability": "view",
      "type": "function"
    },
    {
      "constant": true,
      "inputs": [],
      "name": "getMyBalance",
      "outputs": [
        {
          "internalType": "uint256",
          "name": "",
          "type": "uint256"
        }
      ],
      "payable": false,
      "stateMutability": "view",
      "type": "function"
    }
  ],
  "bytecode": "0x60806040526000805560006001556000600255600060035534801561002357600080fd5b5033600860006101000a81548173ffffffffffffffffffffffffffffffffffffffff021916908373ffffffffffffffffffffffffffffffffffffffff16021790555033600960006101000a81548173ffffffffffffffffffffffffffffffffffffffff021916908373ffffffffffffffffffffffffffffffffffffffff160217905550612323806100b56000396000f3fe6080604052600436106101405760003560e01c80638642269e116100b6578063c52660841161006f578063c5266084146109c8578063cee26ed514610bd2578063e0f6ef8714610c54578063e8726c6414610c7f578063f2aa821814610cc4578063f4b30eaf14610d4d57610140565b80638642269e146108325780639ace38c2146108605780639d0ec380146108d25780639e0cea051461095b578063a365a85e14610986578063b77bf6001461099d57610140565b806348e5ff6d1161010857806348e5ff6d146103e15780634c738909146104635780634f84757c1461048e57806352c9224c1461064457806359fa9b1f1461065b5780637acc0b201461068657610140565b806312065fe014610145578063242232d1146101705780633380c0d8146101ab578063387e059b146101e65780633f70c2b414610235575b600080fd5b34801561015157600080fd5b5061015a610dbf565b6040518082815260200191505060405180910390f35b34801561017c57600080fd5b506101a96004803603602081101561019357600080fd5b8101908080359060200190929190505050610dde565b005b3480156101b757600080fd5b506101e4600480360360208110156101ce57600080fd5b81019080803590602001909291905050506111cb565b005b3480156101f257600080fd5b5061021f6004803603602081101561020957600080fd5b810190808035906020019092919050505061136f565b6040518082815260200191505060405180910390f35b34801561024157600080fd5b5061026e6004803603602081101561025857600080fd5b81019080803590602001909291905050506113c9565b604051808060200180602001888152602001871515151581526020018681526020018581526020018060200184810384528b818151815260200191508051906020019080838360005b838110156102d25780820151818401526020810190506102b7565b50505050905090810190601f1680156102ff5780820380516001836020036101000a031916815260200191505b5084810383528a818151815260200191508051906020019080838360005b8381101561033857808201518184015260208101905061031d565b50505050905090810190601f1680156103655780820380516001836020036101000a031916815260200191505b50848103825285818151815260200191508051906020019080838360005b8381101561039e578082015181840152602081019050610383565b50505050905090810190601f1680156103cb5780820380516001836020036101000a031916815260200191505b509a505050505050505050505060405180910390f35b3480156103ed57600080fd5b5061041a6004803603602081101561040457600080fd5b810190808035906020019092919050505061165e565b604051808381526020018273ffffffffffffffffffffffffffffffffffffffff1673ffffffffffffffffffffffffffffffffffffffff1681526020019250505060405180910390f35b34801561046f57600080fd5b506104786116a5565b6040518082815260200191505060405180910390f35b34801561049a57600080fd5b506104d1600480360360408110156104b157600080fd5b8101908080359060200190929190803590602001909291905050506116c4565b604051808060200180602001888152602001871515151581526020018681526020018581526020018060200184810384528b818151815260200191508051906020019080838360005b8381101561053557808201518184015260208101905061051a565b50505050905090810190601f1680156105625780820380516001836020036101000a031916815260200191505b5084810383528a818151815260200191508051906020019080838360005b8381101561059b578082015181840152602081019050610580565b50505050905090810190601f1680156105c85780820380516001836020036101000a031916815260200191505b50848103825285818151815260200191508051906020019080838360005b838110156106015780820151818401526020810190506105e6565b50505050905090810190601f16801561062e5780820380516001836020036101000a031916815260200191505b509a505050505050505050505060405180910390f35b34801561065057600080fd5b50610659611719565b005b34801561066757600080fd5b50610670611850565b6040518082815260200191505060405180910390f35b34801561069257600080fd5b506106bf600480360360208110156106a957600080fd5b8101908080359060200190929190505050611856565b604051808060200180602001806020018881526020018715151515815260200186815260200185815260200184810384528b818151815260200191508051906020019080838360005b83811015610723578082015181840152602081019050610708565b50505050905090810190601f1680156107505780820380516001836020036101000a031916815260200191505b5084810383528a818151815260200191508051906020019080838360005b8381101561078957808201518184015260208101905061076e565b50505050905090810190601f1680156107b65780820380516001836020036101000a031916815260200191505b50848103825289818151815260200191508051906020019080838360005b838110156107ef5780820151818401526020810190506107d4565b50505050905090810190601f16801561081c5780820380516001836020036101000a031916815260200191505b509a505050505050505050505060405180910390f35b61085e6004803603602081101561084857600080fd5b8101908080359060200190929190505050611a6d565b005b34801561086c57600080fd5b506108996004803603602081101561088357600080fd5b8101908080359060200190929190505050611bfd565b604051808581526020018481526020018381526020018260028111156108bb57fe5b60ff16815260200194505050505060405180910390f35b3480156108de57600080fd5b5061090b600480360360208110156108f557600080fd5b8101908080359060200190929190505050611c3a565b604051808481526020018373ffffffffffffffffffffffffffffffffffffffff1673ffffffffffffffffffffffffffffffffffffffff168152602001828152602001935050505060405180910390f35b34801561096757600080fd5b50610970611cd8565b6040518082815260200191505060405180910390f35b34801561099257600080fd5b5061099b611cde565b005b3480156109a957600080fd5b506109b2611e25565b6040518082815260200191505060405180910390f35b3480156109d457600080fd5b50610bd0600480360360a08110156109eb57600080fd5b8101908080359060200190640100000000811115610a0857600080fd5b820183602082011115610a1a57600080fd5b80359060200191846001830284011164010000000083111715610a3c57600080fd5b91908080601f016020809104026020016040519081016040528093929190818152602001838380828437600081840152601f19601f82011690508083019250505050505050919291929080359060200190640100000000811115610a9f57600080fd5b820183602082011115610ab157600080fd5b80359060200191846001830284011164010000000083111715610ad357600080fd5b91908080601f016020809104026020016040519081016040528093929190818152602001838380828437600081840152601f19601f82011690508083019250505050505050919291929080359060200190640100000000811115610b3657600080fd5b820183602082011115610b4857600080fd5b80359060200191846001830284011164010000000083111715610b6a57600080fd5b91908080601f016020809104026020016040519081016040528093929190818152602001838380828437600081840152601f19601f8201169050808301925050505050505091929192908035906020019092919080359060200190929190505050611e2b565b005b348015610bde57600080fd5b50610c0b60048036036020811015610bf557600080fd5b8101908080359060200190929190505050611f82565b604051808373ffffffffffffffffffffffffffffffffffffffff1673ffffffffffffffffffffffffffffffffffffffff1681526020018281526020019250505060405180910390f35b348015610c6057600080fd5b50610c69611fc6565b6040518082815260200191505060405180910390f35b348015610c8b57600080fd5b50610cc260048036036040811015610ca257600080fd5b810190808035906020019092919080359060200190929190505050611fcc565b005b348015610cd057600080fd5b50610cfd60048036036020811015610ce757600080fd5b8101908080359060200190929190505050612125565b604051808481526020018373ffffffffffffffffffffffffffffffffffffffff1673ffffffffffffffffffffffffffffffffffffffff168152602001828152602001935050505060405180910390f35b348015610d5957600080fd5b50610d8660048036036020811015610d7057600080fd5b810190808035906020019092919050505061216f565b60405180858152602001848152602001838152602001826002811115610da857fe5b60ff16815260200194505050505060405180910390f35b60003073ffffffffffffffffffffffffffffffffffffffff1631905090565b600860009054906101000a900473ffffffffffffffffffffffffffffffffffffffff1673ffffffffffffffffffffffffffffffffffffffff163373ffffffffffffffffffffffffffffffffffffffff1614610e3857600080fd5b6000600460006007600085815260200190815260200160002060010154815260200190815260200160002090506007600083815260200190815260200160002060020154816003016000836002015481526020019081526020016000208190555060018160020160008282540192505081905550610eb46121d7565b60066000600760008681526020019081526020016000206002015481526020019081526020016000206040518060e0016040529081600082018054600181600116156101000203166002900480601f016020809104026020016040519081016040528092919081815260200182805460018160011615610100020316600290048015610f815780601f10610f5657610100808354040283529160200191610f81565b820191906000526020600020905b815481529060010190602001808311610f6457829003601f168201915b50505050508152602001600182018054600181600116156101000203166002900480601f0160208091040260200160405190810160405280929190818152602001828054600181600116156101000203166002900480156110235780601f10610ff857610100808354040283529160200191611023565b820191906000526020600020905b81548152906001019060200180831161100657829003601f168201915b50505050508152602001600282018054600181600116156101000203166002900480601f0160208091040260200160405190810160405280929190818152602001828054600181600116156101000203166002900480156110c55780601f1061109a576101008083540402835291602001916110c5565b820191906000526020600020905b8154815290600101906020018083116110a857829003601f168201915b50505050508152602001600382015481526020016004820160009054906101000a900460ff16151515158152602001600582015481526020016006820154815250509050600560008260c00151815260200190815260200160002060000160009054906101000a900473ffffffffffffffffffffffffffffffffffffffff1673ffffffffffffffffffffffffffffffffffffffff166108fc82606001519081150290604051600060405180830381858888f1935050505015801561118d573d6000803e3d6000fd5b5060016007600085815260200190815260200160002060030160006101000a81548160ff021916908360028111156111c157fe5b0217905550505050565b600860009054906101000a900473ffffffffffffffffffffffffffffffffffffffff1673ffffffffffffffffffffffffffffffffffffffff163373ffffffffffffffffffffffffffffffffffffffff161461122557600080fd5b61122d612216565b600760008381526020019081526020016000206040518060800160405290816000820154815260200160018201548152602001600282015481526020016003820160009054906101000a900460ff16600281111561128757fe5b600281111561129257fe5b815250509050600460008260200151815260200190815260200160002060010160009054906101000a900473ffffffffffffffffffffffffffffffffffffffff1673ffffffffffffffffffffffffffffffffffffffff166108fc6006600084604001518152602001908152602001600020600301549081150290604051600060405180830381858888f19350505050158015611332573d6000803e3d6000fd5b5060026007600084815260200190815260200160002060030160006101000a81548160ff0219169083600281111561136657fe5b02179055505050565b6000806000905060008090505b6000548110156113bf576006600085815260200190815260200160002060070160008281526020019081526020016000205482019150808060010191505061137c565b5080915050919050565b606080600080600080606060066000898152602001908152602001600020600001600660008a8152602001908152602001600020600101600660008b815260200190815260200160002060030154600660008c815260200190815260200160002060040160009054906101000a900460ff16600660008d81526020019081526020016000206006015461145b8d61136f565b600660008f8152602001908152602001600020600201868054600181600116156101000203166002900480601f0160208091040260200160405190810160405280929190818152602001828054600181600116156101000203166002900480156115065780601f106114db57610100808354040283529160200191611506565b820191906000526020600020905b8154815290600101906020018083116114e957829003601f168201915b50505050509650858054600181600116156101000203166002900480601f0160208091040260200160405190810160405280929190818152602001828054600181600116156101000203166002900480156115a25780601f10611577576101008083540402835291602001916115a2565b820191906000526020600020905b81548152906001019060200180831161158557829003601f168201915b50505050509550808054600181600116156101000203166002900480601f01602080910402602001604051908101604052809291908181526020018280546001816001161561010002031660029004801561163e5780601f106116135761010080835404028352916020019161163e565b820191906000526020600020905b81548152906001019060200180831161162157829003601f168201915b505050505090509650965096509650965096509650919395979092949650565b600080826004600085815260200190815260200160002060010160009054906101000a900473ffffffffffffffffffffffffffffffffffffffff1680905091509150915091565b60003373ffffffffffffffffffffffffffffffffffffffff1631905090565b60608060008060008060606116ff600460008b815260200190815260200160002060030160008a8152602001908152602001600020546113c9565b965096509650965096509650965092959891949750929550565b60008090505b6001548110156117a6573373ffffffffffffffffffffffffffffffffffffffff166005600083815260200190815260200160002060000160009054906101000a900473ffffffffffffffffffffffffffffffffffffffff1673ffffffffffffffffffffffffffffffffffffffff161415611799575061184e565b808060010191505061171f565b5060405180604001604052803373ffffffffffffffffffffffffffffffffffffffff16815260200160015481525060056000600154815260200190815260200160002060008201518160000160006101000a81548173ffffffffffffffffffffffffffffffffffffffff021916908373ffffffffffffffffffffffffffffffffffffffff16021790555060208201518160010155905050600180600082825401925050819055505b565b60015481565b6006602052806000526040600020600091509050806000018054600181600116156101000203166002900480601f0160208091040260200160405190810160405280929190818152602001828054600181600116156101000203166002900480156119025780601f106118d757610100808354040283529160200191611902565b820191906000526020600020905b8154815290600101906020018083116118e557829003601f168201915b505050505090806001018054600181600116156101000203166002900480601f0160208091040260200160405190810160405280929190818152602001828054600181600116156101000203166002900480156119a05780601f10611975576101008083540402835291602001916119a0565b820191906000526020600020905b81548152906001019060200180831161198357829003601f168201915b505050505090806002018054600181600116156101000203166002900480601f016020809104026020016040519081016040528092919081815260200182805460018160011615610100020316600290048015611a3e5780601f10611a1357610100808354040283529160200191611a3e565b820191906000526020600020905b815481529060010190602001808311611a2157829003601f168201915b5050505050908060030154908060040160009054906101000a900460ff16908060050154908060060154905087565b60008090505b600054811015611bf8573373ffffffffffffffffffffffffffffffffffffffff166004600083815260200190815260200160002060010160009054906101000a900473ffffffffffffffffffffffffffffffffffffffff1673ffffffffffffffffffffffffffffffffffffffff161415611beb5760066000838152602001908152602001600020600301543410611be5576040518060800160405280600354815260200182815260200183815260200160006002811115611b3057fe5b81525060076000600354815260200190815260200160002060008201518160000155602082015181600101556040820151816002015560608201518160030160006101000a81548160ff02191690836002811115611b8a57fe5b02179055509050507f350df6fcc944b226b77efc36902e19b43c566d75173622086e809d46dfbc222060035483604051808381526020018281526020019250505060405180910390a160016003600082825401925050819055505b50611bfa565b8080600101915050611a73565b505b50565b60076020528060005260406000206000915090508060000154908060010154908060020154908060030160009054906101000a900460ff16905084565b6000806000806000905060008090505b600254811015611c8d578560066000838152602001908152602001600020600601541415611c8057611c7b8161136f565b820191505b8080600101915050611c4a565b50846005600087815260200190815260200160002060000160009054906101000a900473ffffffffffffffffffffffffffffffffffffffff1682819150935093509350509193909250565b60005481565b60008090505b600054811015611d6b573373ffffffffffffffffffffffffffffffffffffffff166004600083815260200190815260200160002060010160009054906101000a900473ffffffffffffffffffffffffffffffffffffffff1673ffffffffffffffffffffffffffffffffffffffff161415611d5e5750611e23565b8080600101915050611ce4565b50604051806060016040528060005481526020013373ffffffffffffffffffffffffffffffffffffffff168152602001600081525060046000805481526020019081526020016000206000820151816000015560208201518160010160006101000a81548173ffffffffffffffffffffffffffffffffffffffff021916908373ffffffffffffffffffffffffffffffffffffffff16021790555060408201518160020155905050600160008082825401925050819055505b565b60035481565b600860009054906101000a900473ffffffffffffffffffffffffffffffffffffffff1673ffffffffffffffffffffffffffffffffffffffff163373ffffffffffffffffffffffffffffffffffffffff1614611e8557600080fd5b6040518060e001604052808681526020018581526020018481526020018381526020016001151581526020016002548152602001828152506006600060025481526020019081526020016000206000820151816000019080519060200190611eee929190612249565b506020820151816001019080519060200190611f0b929190612249565b506040820151816002019080519060200190611f28929190612249565b506060820151816003015560808201518160040160006101000a81548160ff02191690831515021790555060a0820151816005015560c0820151816006015590505060016002600082825401925050819055505050505050565b60056020528060005260406000206000915090508060000160009054906101000a900473ffffffffffffffffffffffffffffffffffffffff16908060010154905082565b60025481565b60018114158015611ffd57507fffffffffffffffffffffffffffffffffffffffffffffffffffffffffffffffff8114155b1561200757612121565b60008090505b60005481101561211f573373ffffffffffffffffffffffffffffffffffffffff166004600083815260200190815260200160002060010160009054906101000a900473ffffffffffffffffffffffffffffffffffffffff1673ffffffffffffffffffffffffffffffffffffffff1614156121125760008090505b600354811015612110578160076000838152602001908152602001600020600101541480156120cb5750836007600083815260200190815260200160002060020154145b156121035782600660008681526020019081526020016000206007016000848152602001908152602001600020819055505050612121565b8080600101915050612087565b505b808060010191505061200d565b505b5050565b60046020528060005260406000206000915090508060000154908060010160009054906101000a900473ffffffffffffffffffffffffffffffffffffffff16908060020154905083565b60008060008084600760008781526020019081526020016000206001015460076000888152602001908152602001600020600201546007600089815260200190815260200160002060030160009054906101000a900460ff1693509350935093509193509193565b6040518060e001604052806060815260200160608152602001606081526020016000815260200160001515815260200160008152602001600081525090565b60405180608001604052806000815260200160008152602001600081526020016000600281111561224357fe5b81525090565b828054600181600116156101000203166002900490600052602060002090601f016020900481019282601f1061228a57805160ff19168380011785556122b8565b828001600101855582156122b8579182015b828111156122b757825182559160200191906001019061229c565b5b5090506122c591906122c9565b5090565b6122eb91905b808211156122e75760008160009055506001016122cf565b5090565b9056fea265627a7a72315820b5ce93d010cf5317ea7168a3960d85500dee9979c215341e642524fa6b8cef0d64736f6c634300050c0032",
  "source": "pragma solidity ^0.5.11;\n\ncontract CodeContract {\n    uint256 public buyerCount = 0;\n    uint256 public sellerCount = 0;\n    uint256 public productCount = 0;\n    uint256 public transactionCount = 0;\n    \n    \n    mapping(uint => Buyer) public buyers;\n    mapping(uint => Seller) public sellers;\n    mapping(uint => Product) public products;\n    mapping(uint => Transaction) public transactions;\n    \n    address owner;\n    address payable wallet;\n    \n    struct Buyer {\n        uint   id;\n        address payable public_address;\n        uint purchaseCount;\n        mapping(uint => uint) purchases;\n    }\n\n    struct Seller {\n        address payable public_address;\n        uint id;\n    }\n\n    struct Product {\n        string name;\n        string description;\n        string img;\n        uint  price;\n        bool active;\n        uint id;\n        uint seller_id;\n        mapping(uint => int) ratings;\n    }\n\n    enum State {Pending, Success, Fail}\n\n    struct Transaction {\n        uint id;\n        uint buyer_id;\n        uint product_id;\n        State state;\n    }\n\n    event Purchase(uint transaction_id, uint product_id);\n\n    constructor() public {\n        owner = msg.sender;\n        wallet = msg.sender;\n    }\n\n    modifier onlyOwner() {\n        require(msg.sender == owner);\n        _;\n    }\n\n    function buyProduct(uint product_id) public payable {\n        for (uint i = 0; i < buyerCount; i++) {\n            if (buyers[i].public_address == msg.sender) {\n                if(msg.value >= products[product_id].price) {\n                    transactions[transactionCount] = Transaction(transactionCount, i, product_id, State.Pending);\n                    emit Purchase(transactionCount, product_id);\n                    transactionCount += 1;\n                }\n                return;\n            }\n        }\n    }\n\n    function approveTransaction(uint transaction_id) public onlyOwner{\n        // Add purchase to user purchase list\n        Buyer storage b = buyers[transactions[transaction_id].buyer_id];\n        b.purchases[b.purchaseCount] = transactions[transaction_id].product_id;\n        b.purchaseCount += 1;\n\n        // Send money and update transaction list\n        Product memory p = products[transactions[transaction_id].product_id];\n        sellers[p.seller_id].public_address.transfer(p.price);\n        transactions[transaction_id].state = State.Success;\n    }\n\n    function cancelTransaction(uint transaction_id) public onlyOwner{\n        Transaction memory p = transactions[transaction_id];\n        buyers[p.buyer_id].public_address.transfer(products[p.product_id].price);\n        transactions[transaction_id].state = State.Fail;\n    }\n\n    function updateRating(uint product_id, int score) public {\n        if(score != 1 && score != -1) {\n            return;\n        }\n\n        for (uint i = 0; i < buyerCount; i++) {\n            if (buyers[i].public_address == msg.sender) {\n                for (uint j = 0; j < transactionCount; j++) {\n                    if (transactions[j].buyer_id == i && transactions[j].product_id == product_id) {\n                        products[product_id].ratings[i] = score;\n                        return;\n                    }\n                }\n            }\n        }\n    }\n\n    function getProductRating(uint product_id) public view returns (int){\n        int score = 0;\n        for (uint i = 0; i < buyerCount; i++) {\n            score += products[product_id].ratings[i];\n        }\n        return score;\n    }\n\n    function getProductById(uint product_id) public view returns (string memory,string memory,uint,bool,uint,int, string memory) {\n        return (products[product_id].name, products[product_id].description, products[product_id].price, products[product_id].active, products[product_id].seller_id, getProductRating(product_id), products[product_id].img);\n    }\n\n    function getBuyerById(uint buyer_id) public view returns (uint,address) {\n        return (buyer_id, buyers[buyer_id].public_address);\n    }\n\n    function getProductPurchased (uint buyer_id, uint purchaseCount) public view returns (string memory,string memory,uint,bool,uint,int,string memory) {\n        return getProductById(buyers[buyer_id].purchases[purchaseCount]);\n    }\n\n    function getSellerById(uint seller_id) public view returns (uint,address,int) {\n        int score = 0;\n        for (uint i = 0; i < productCount; i++) {\n            if(products[i].seller_id == seller_id) {\n                score += getProductRating(i);\n            }\n        }\n        return (seller_id, sellers[seller_id].public_address, score);\n    }\n\n    function getTransactionById(uint transaction_id) public view returns (uint,uint,uint,State) {\n        return (transaction_id, transactions[transaction_id].buyer_id, transactions[transaction_id].product_id, transactions[transaction_id].state);\n    }\n\n    function registerBuyer() public {\n        for (uint i = 0; i < buyerCount; i++) {\n            if (buyers[i].public_address == msg.sender) {\n                return;\n            }\n        }\n\n        buyers[buyerCount] = Buyer(buyerCount,msg.sender, 0);\n        buyerCount += 1;\n    }\n\n    function registerSeller() public {\n        for (uint i = 0; i < sellerCount; i++) {\n            if (sellers[i].public_address == msg.sender) {\n                return;\n            }\n        }\n\n        sellers[sellerCount] = Seller(msg.sender,sellerCount);\n        sellerCount += 1;\n    }\n\n    function registerProduct(string memory name, string memory description, string memory img, uint price, uint seller_id) public onlyOwner {\n        products[productCount] = Product(name, description, img, price, true, productCount, seller_id);\n        productCount += 1;\n    }\n\n    function getBalance() public view returns(uint256) {\n        return address(this).balance;\n    }\n\n    function getMyBalance() public view returns(uint256) {\n        return msg.sender.balance;\n    }\n}",
  "sourcePath": "/Users/trido/Downloads/eth-voting-dapp/contracts/CodeContract.sol",
  "compiler": {
    "name": "solc",
    "version": "0.5.12+commit.7709ece9.Emscripten.clang"
  },
  "schemaVersion": "3.0.18",
  "updatedAt": "2019-11-18T02:53:32.287Z",
  "networkType": "ethereum",
  "devdoc": {
    "methods": {}
  },
  "userdoc": {
    "methods": {}
  }
}