{
  "contractName": "CodeContract",
  "abi": [
    {
      "inputs": [],
      "payable": false,
      "stateMutability": "nonpayable",
      "type": "constructor"
    },
    {
      "anonymous": false,
      "inputs": [
        {
          "indexed": false,
          "internalType": "uint256",
          "name": "transaction_id",
          "type": "uint256"
        },
        {
          "indexed": false,
          "internalType": "uint256",
          "name": "product_id",
          "type": "uint256"
        }
      ],
      "name": "Purchase",
      "type": "event"
    },
    {
      "constant": true,
      "inputs": [],
      "name": "buyerCount",
      "outputs": [
        {
          "internalType": "uint256",
          "name": "",
          "type": "uint256"
        }
      ],
      "payable": false,
      "stateMutability": "view",
      "type": "function"
    },
    {
      "constant": true,
      "inputs": [
        {
          "internalType": "uint256",
          "name": "",
          "type": "uint256"
        }
      ],
      "name": "buyers",
      "outputs": [
        {
          "internalType": "uint256",
          "name": "id",
          "type": "uint256"
        },
        {
          "internalType": "address payable",
          "name": "public_address",
          "type": "address"
        },
        {
          "internalType": "uint256",
          "name": "purchaseCount",
          "type": "uint256"
        }
      ],
      "payable": false,
      "stateMutability": "view",
      "type": "function"
    },
    {
      "constant": true,
      "inputs": [],
      "name": "productCount",
      "outputs": [
        {
          "internalType": "uint256",
          "name": "",
          "type": "uint256"
        }
      ],
      "payable": false,
      "stateMutability": "view",
      "type": "function"
    },
    {
      "constant": true,
      "inputs": [
        {
          "internalType": "uint256",
          "name": "",
          "type": "uint256"
        }
      ],
      "name": "products",
      "outputs": [
        {
          "internalType": "string",
          "name": "name",
          "type": "string"
        },
        {
          "internalType": "string",
          "name": "description",
          "type": "string"
        },
        {
          "internalType": "string",
          "name": "img",
          "type": "string"
        },
        {
          "internalType": "uint256",
          "name": "price",
          "type": "uint256"
        },
        {
          "internalType": "bool",
          "name": "active",
          "type": "bool"
        },
        {
          "internalType": "uint256",
          "name": "id",
          "type": "uint256"
        },
        {
          "internalType": "uint256",
          "name": "seller_id",
          "type": "uint256"
        }
      ],
      "payable": false,
      "stateMutability": "view",
      "type": "function"
    },
    {
      "constant": true,
      "inputs": [],
      "name": "sellerCount",
      "outputs": [
        {
          "internalType": "uint256",
          "name": "",
          "type": "uint256"
        }
      ],
      "payable": false,
      "stateMutability": "view",
      "type": "function"
    },
    {
      "constant": true,
      "inputs": [
        {
          "internalType": "uint256",
          "name": "",
          "type": "uint256"
        }
      ],
      "name": "sellers",
      "outputs": [
        {
          "internalType": "address payable",
          "name": "public_address",
          "type": "address"
        },
        {
          "internalType": "uint256",
          "name": "id",
          "type": "uint256"
        }
      ],
      "payable": false,
      "stateMutability": "view",
      "type": "function"
    },
    {
      "constant": true,
      "inputs": [],
      "name": "transactionCount",
      "outputs": [
        {
          "internalType": "uint256",
          "name": "",
          "type": "uint256"
        }
      ],
      "payable": false,
      "stateMutability": "view",
      "type": "function"
    },
    {
      "constant": true,
      "inputs": [
        {
          "internalType": "uint256",
          "name": "",
          "type": "uint256"
        }
      ],
      "name": "transactions",
      "outputs": [
        {
          "internalType": "uint256",
          "name": "id",
          "type": "uint256"
        },
        {
          "internalType": "uint256",
          "name": "buyer_id",
          "type": "uint256"
        },
        {
          "internalType": "uint256",
          "name": "product_id",
          "type": "uint256"
        },
        {
          "internalType": "enum CodeContract.State",
          "name": "state",
          "type": "uint8"
        }
      ],
      "payable": false,
      "stateMutability": "view",
      "type": "function"
    },
    {
      "constant": false,
      "inputs": [
        {
          "internalType": "uint256",
          "name": "product_id",
          "type": "uint256"
        }
      ],
      "name": "buyProduct",
      "outputs": [],
      "payable": true,
      "stateMutability": "payable",
      "type": "function"
    },
    {
      "constant": false,
      "inputs": [
        {
          "internalType": "uint256",
          "name": "transaction_id",
          "type": "uint256"
        }
      ],
      "name": "approveTransaction",
      "outputs": [],
      "payable": false,
      "stateMutability": "nonpayable",
      "type": "function"
    },
    {
      "constant": false,
      "inputs": [
        {
          "internalType": "uint256",
          "name": "transaction_id",
          "type": "uint256"
        }
      ],
      "name": "cancelTransaction",
      "outputs": [],
      "payable": false,
      "stateMutability": "nonpayable",
      "type": "function"
    },
    {
      "constant": false,
      "inputs": [
        {
          "internalType": "uint256",
          "name": "product_id",
          "type": "uint256"
        },
        {
          "internalType": "int256",
          "name": "score",
          "type": "int256"
        }
      ],
      "name": "updateRating",
      "outputs": [],
      "payable": false,
      "stateMutability": "nonpayable",
      "type": "function"
    },
    {
      "constant": true,
      "inputs": [
        {
          "internalType": "uint256",
          "name": "product_id",
          "type": "uint256"
        }
      ],
      "name": "getProductRating",
      "outputs": [
        {
          "internalType": "int256",
          "name": "",
          "type": "int256"
        }
      ],
      "payable": false,
      "stateMutability": "view",
      "type": "function"
    },
    {
      "constant": true,
      "inputs": [
        {
          "internalType": "uint256",
          "name": "product_id",
          "type": "uint256"
        }
      ],
      "name": "getProductById",
      "outputs": [
        {
          "internalType": "string",
          "name": "",
          "type": "string"
        },
        {
          "internalType": "string",
          "name": "",
          "type": "string"
        },
        {
          "internalType": "uint256",
          "name": "",
          "type": "uint256"
        },
        {
          "internalType": "bool",
          "name": "",
          "type": "bool"
        },
        {
          "internalType": "uint256",
          "name": "",
          "type": "uint256"
        },
        {
          "internalType": "int256",
          "name": "",
          "type": "int256"
        },
        {
          "internalType": "string",
          "name": "",
          "type": "string"
        }
      ],
      "payable": false,
      "stateMutability": "view",
      "type": "function"
    },
    {
      "constant": true,
      "inputs": [
        {
          "internalType": "uint256",
          "name": "product_id",
          "type": "uint256"
        }
      ],
      "name": "getNumOfPurchase",
      "outputs": [
        {
          "internalType": "int256",
          "name": "",
          "type": "int256"
        }
      ],
      "payable": false,
      "stateMutability": "view",
      "type": "function"
    },
    {
      "constant": true,
      "inputs": [
        {
          "internalType": "uint256",
          "name": "buyer_id",
          "type": "uint256"
        }
      ],
      "name": "getBuyerById",
      "outputs": [
        {
          "internalType": "uint256",
          "name": "",
          "type": "uint256"
        },
        {
          "internalType": "address",
          "name": "",
          "type": "address"
        }
      ],
      "payable": false,
      "stateMutability": "view",
      "type": "function"
    },
    {
      "constant": true,
      "inputs": [
        {
          "internalType": "uint256",
          "name": "buyer_id",
          "type": "uint256"
        },
        {
          "internalType": "uint256",
          "name": "purchaseCount",
          "type": "uint256"
        }
      ],
      "name": "getProductPurchased",
      "outputs": [
        {
          "internalType": "string",
          "name": "",
          "type": "string"
        },
        {
          "internalType": "string",
          "name": "",
          "type": "string"
        },
        {
          "internalType": "uint256",
          "name": "",
          "type": "uint256"
        },
        {
          "internalType": "bool",
          "name": "",
          "type": "bool"
        },
        {
          "internalType": "uint256",
          "name": "",
          "type": "uint256"
        },
        {
          "internalType": "int256",
          "name": "",
          "type": "int256"
        },
        {
          "internalType": "string",
          "name": "",
          "type": "string"
        }
      ],
      "payable": false,
      "stateMutability": "view",
      "type": "function"
    },
    {
      "constant": true,
      "inputs": [
        {
          "internalType": "uint256",
          "name": "seller_id",
          "type": "uint256"
        }
      ],
      "name": "getSellerById",
      "outputs": [
        {
          "internalType": "uint256",
          "name": "",
          "type": "uint256"
        },
        {
          "internalType": "address",
          "name": "",
          "type": "address"
        },
        {
          "internalType": "int256",
          "name": "",
          "type": "int256"
        }
      ],
      "payable": false,
      "stateMutability": "view",
      "type": "function"
    },
    {
      "constant": true,
      "inputs": [
        {
          "internalType": "uint256",
          "name": "transaction_id",
          "type": "uint256"
        }
      ],
      "name": "getTransactionById",
      "outputs": [
        {
          "internalType": "uint256",
          "name": "",
          "type": "uint256"
        },
        {
          "internalType": "uint256",
          "name": "",
          "type": "uint256"
        },
        {
          "internalType": "uint256",
          "name": "",
          "type": "uint256"
        },
        {
          "internalType": "enum CodeContract.State",
          "name": "",
          "type": "uint8"
        }
      ],
      "payable": false,
      "stateMutability": "view",
      "type": "function"
    },
    {
      "constant": false,
      "inputs": [],
      "name": "registerBuyer",
      "outputs": [],
      "payable": false,
      "stateMutability": "nonpayable",
      "type": "function"
    },
    {
      "constant": false,
      "inputs": [],
      "name": "registerSeller",
      "outputs": [],
      "payable": false,
      "stateMutability": "nonpayable",
      "type": "function"
    },
    {
      "constant": false,
      "inputs": [
        {
          "internalType": "string",
          "name": "name",
          "type": "string"
        },
        {
          "internalType": "string",
          "name": "description",
          "type": "string"
        },
        {
          "internalType": "string",
          "name": "img",
          "type": "string"
        },
        {
          "internalType": "uint256",
          "name": "price",
          "type": "uint256"
        },
        {
          "internalType": "uint256",
          "name": "seller_id",
          "type": "uint256"
        }
      ],
      "name": "registerProduct",
      "outputs": [],
      "payable": false,
      "stateMutability": "nonpayable",
      "type": "function"
    },
    {
      "constant": true,
      "inputs": [],
      "name": "getBalance",
      "outputs": [
        {
          "internalType": "uint256",
          "name": "",
          "type": "uint256"
        }
      ],
      "payable": false,
      "stateMutability": "view",
      "type": "function"
    },
    {
      "constant": true,
      "inputs": [],
      "name": "getMyBalance",
      "outputs": [
        {
          "internalType": "uint256",
          "name": "",
          "type": "uint256"
        }
      ],
      "payable": false,
      "stateMutability": "view",
      "type": "function"
    }
  ],
  "bytecode": "0x60806040526000805560006001556000600255600060035534801561002357600080fd5b5033600860006101000a81548173ffffffffffffffffffffffffffffffffffffffff021916908373ffffffffffffffffffffffffffffffffffffffff16021790555033600960006101000a81548173ffffffffffffffffffffffffffffffffffffffff021916908373ffffffffffffffffffffffffffffffffffffffff160217905550612415806100b56000396000f3fe60806040526004361061014b5760003560e01c80638642269e116100b6578063c52660841161006f578063c526608414610a22578063cee26ed514610c2c578063e0f6ef8714610cae578063e8726c6414610cd9578063f2aa821814610d1e578063f4b30eaf14610da75761014b565b80638642269e1461088c5780639ace38c2146108ba5780639d0ec3801461092c5780639e0cea05146109b5578063a365a85e146109e0578063b77bf600146109f75761014b565b80634c738909116101085780634c7389091461046e5780634e261c9e146104995780634f84757c146104e857806352c9224c1461069e57806359fa9b1f146106b55780637acc0b20146106e05761014b565b806312065fe014610150578063242232d11461017b5780633380c0d8146101b6578063387e059b146101f15780633f70c2b41461024057806348e5ff6d146103ec575b600080fd5b34801561015c57600080fd5b50610165610e19565b6040518082815260200191505060405180910390f35b34801561018757600080fd5b506101b46004803603602081101561019e57600080fd5b8101908080359060200190929190505050610e38565b005b3480156101c257600080fd5b506101ef600480360360208110156101d957600080fd5b8101908080359060200190929190505050611225565b005b3480156101fd57600080fd5b5061022a6004803603602081101561021457600080fd5b81019080803590602001909291905050506113c9565b6040518082815260200191505060405180910390f35b34801561024c57600080fd5b506102796004803603602081101561026357600080fd5b8101908080359060200190929190505050611423565b604051808060200180602001888152602001871515151581526020018681526020018581526020018060200184810384528b818151815260200191508051906020019080838360005b838110156102dd5780820151818401526020810190506102c2565b50505050905090810190601f16801561030a5780820380516001836020036101000a031916815260200191505b5084810383528a818151815260200191508051906020019080838360005b83811015610343578082015181840152602081019050610328565b50505050905090810190601f1680156103705780820380516001836020036101000a031916815260200191505b50848103825285818151815260200191508051906020019080838360005b838110156103a957808201518184015260208101905061038e565b50505050905090810190601f1680156103d65780820380516001836020036101000a031916815260200191505b509a505050505050505050505060405180910390f35b3480156103f857600080fd5b506104256004803603602081101561040f57600080fd5b81019080803590602001909291905050506116b8565b604051808381526020018273ffffffffffffffffffffffffffffffffffffffff1673ffffffffffffffffffffffffffffffffffffffff1681526020019250505060405180910390f35b34801561047a57600080fd5b506104836116ff565b6040518082815260200191505060405180910390f35b3480156104a557600080fd5b506104d2600480360360208110156104bc57600080fd5b810190808035906020019092919050505061171e565b6040518082815260200191505060405180910390f35b3480156104f457600080fd5b5061052b6004803603604081101561050b57600080fd5b8101908080359060200190929190803590602001909291905050506117b6565b604051808060200180602001888152602001871515151581526020018681526020018581526020018060200184810384528b818151815260200191508051906020019080838360005b8381101561058f578082015181840152602081019050610574565b50505050905090810190601f1680156105bc5780820380516001836020036101000a031916815260200191505b5084810383528a818151815260200191508051906020019080838360005b838110156105f55780820151818401526020810190506105da565b50505050905090810190601f1680156106225780820380516001836020036101000a031916815260200191505b50848103825285818151815260200191508051906020019080838360005b8381101561065b578082015181840152602081019050610640565b50505050905090810190601f1680156106885780820380516001836020036101000a031916815260200191505b509a505050505050505050505060405180910390f35b3480156106aa57600080fd5b506106b361180b565b005b3480156106c157600080fd5b506106ca611942565b6040518082815260200191505060405180910390f35b3480156106ec57600080fd5b506107196004803603602081101561070357600080fd5b8101908080359060200190929190505050611948565b604051808060200180602001806020018881526020018715151515815260200186815260200185815260200184810384528b818151815260200191508051906020019080838360005b8381101561077d578082015181840152602081019050610762565b50505050905090810190601f1680156107aa5780820380516001836020036101000a031916815260200191505b5084810383528a818151815260200191508051906020019080838360005b838110156107e35780820151818401526020810190506107c8565b50505050905090810190601f1680156108105780820380516001836020036101000a031916815260200191505b50848103825289818151815260200191508051906020019080838360005b8381101561084957808201518184015260208101905061082e565b50505050905090810190601f1680156108765780820380516001836020036101000a031916815260200191505b509a505050505050505050505060405180910390f35b6108b8600480360360208110156108a257600080fd5b8101908080359060200190929190505050611b5f565b005b3480156108c657600080fd5b506108f3600480360360208110156108dd57600080fd5b8101908080359060200190929190505050611cef565b6040518085815260200184815260200183815260200182600281111561091557fe5b60ff16815260200194505050505060405180910390f35b34801561093857600080fd5b506109656004803603602081101561094f57600080fd5b8101908080359060200190929190505050611d2c565b604051808481526020018373ffffffffffffffffffffffffffffffffffffffff1673ffffffffffffffffffffffffffffffffffffffff168152602001828152602001935050505060405180910390f35b3480156109c157600080fd5b506109ca611dca565b6040518082815260200191505060405180910390f35b3480156109ec57600080fd5b506109f5611dd0565b005b348015610a0357600080fd5b50610a0c611f17565b6040518082815260200191505060405180910390f35b348015610a2e57600080fd5b50610c2a600480360360a0811015610a4557600080fd5b8101908080359060200190640100000000811115610a6257600080fd5b820183602082011115610a7457600080fd5b80359060200191846001830284011164010000000083111715610a9657600080fd5b91908080601f016020809104026020016040519081016040528093929190818152602001838380828437600081840152601f19601f82011690508083019250505050505050919291929080359060200190640100000000811115610af957600080fd5b820183602082011115610b0b57600080fd5b80359060200191846001830284011164010000000083111715610b2d57600080fd5b91908080601f016020809104026020016040519081016040528093929190818152602001838380828437600081840152601f19601f82011690508083019250505050505050919291929080359060200190640100000000811115610b9057600080fd5b820183602082011115610ba257600080fd5b80359060200191846001830284011164010000000083111715610bc457600080fd5b91908080601f016020809104026020016040519081016040528093929190818152602001838380828437600081840152601f19601f8201169050808301925050505050505091929192908035906020019092919080359060200190929190505050611f1d565b005b348015610c3857600080fd5b50610c6560048036036020811015610c4f57600080fd5b8101908080359060200190929190505050612074565b604051808373ffffffffffffffffffffffffffffffffffffffff1673ffffffffffffffffffffffffffffffffffffffff1681526020018281526020019250505060405180910390f35b348015610cba57600080fd5b50610cc36120b8565b6040518082815260200191505060405180910390f35b348015610ce557600080fd5b50610d1c60048036036040811015610cfc57600080fd5b8101908080359060200190929190803590602001909291905050506120be565b005b348015610d2a57600080fd5b50610d5760048036036020811015610d4157600080fd5b8101908080359060200190929190505050612217565b604051808481526020018373ffffffffffffffffffffffffffffffffffffffff1673ffffffffffffffffffffffffffffffffffffffff168152602001828152602001935050505060405180910390f35b348015610db357600080fd5b50610de060048036036020811015610dca57600080fd5b8101908080359060200190929190505050612261565b60405180858152602001848152602001838152602001826002811115610e0257fe5b60ff16815260200194505050505060405180910390f35b60003073ffffffffffffffffffffffffffffffffffffffff1631905090565b600860009054906101000a900473ffffffffffffffffffffffffffffffffffffffff1673ffffffffffffffffffffffffffffffffffffffff163373ffffffffffffffffffffffffffffffffffffffff1614610e9257600080fd5b6000600460006007600085815260200190815260200160002060010154815260200190815260200160002090506007600083815260200190815260200160002060020154816003016000836002015481526020019081526020016000208190555060018160020160008282540192505081905550610f0e6122c9565b60066000600760008681526020019081526020016000206002015481526020019081526020016000206040518060e0016040529081600082018054600181600116156101000203166002900480601f016020809104026020016040519081016040528092919081815260200182805460018160011615610100020316600290048015610fdb5780601f10610fb057610100808354040283529160200191610fdb565b820191906000526020600020905b815481529060010190602001808311610fbe57829003601f168201915b50505050508152602001600182018054600181600116156101000203166002900480601f01602080910402602001604051908101604052809291908181526020018280546001816001161561010002031660029004801561107d5780601f106110525761010080835404028352916020019161107d565b820191906000526020600020905b81548152906001019060200180831161106057829003601f168201915b50505050508152602001600282018054600181600116156101000203166002900480601f01602080910402602001604051908101604052809291908181526020018280546001816001161561010002031660029004801561111f5780601f106110f45761010080835404028352916020019161111f565b820191906000526020600020905b81548152906001019060200180831161110257829003601f168201915b50505050508152602001600382015481526020016004820160009054906101000a900460ff16151515158152602001600582015481526020016006820154815250509050600560008260c00151815260200190815260200160002060000160009054906101000a900473ffffffffffffffffffffffffffffffffffffffff1673ffffffffffffffffffffffffffffffffffffffff166108fc82606001519081150290604051600060405180830381858888f193505050501580156111e7573d6000803e3d6000fd5b5060016007600085815260200190815260200160002060030160006101000a81548160ff0219169083600281111561121b57fe5b0217905550505050565b600860009054906101000a900473ffffffffffffffffffffffffffffffffffffffff1673ffffffffffffffffffffffffffffffffffffffff163373ffffffffffffffffffffffffffffffffffffffff161461127f57600080fd5b611287612308565b600760008381526020019081526020016000206040518060800160405290816000820154815260200160018201548152602001600282015481526020016003820160009054906101000a900460ff1660028111156112e157fe5b60028111156112ec57fe5b815250509050600460008260200151815260200190815260200160002060010160009054906101000a900473ffffffffffffffffffffffffffffffffffffffff1673ffffffffffffffffffffffffffffffffffffffff166108fc6006600084604001518152602001908152602001600020600301549081150290604051600060405180830381858888f1935050505015801561138c573d6000803e3d6000fd5b5060026007600084815260200190815260200160002060030160006101000a81548160ff021916908360028111156113c057fe5b02179055505050565b6000806000905060008090505b60005481101561141957600660008581526020019081526020016000206007016000828152602001908152602001600020548201915080806001019150506113d6565b5080915050919050565b606080600080600080606060066000898152602001908152602001600020600001600660008a8152602001908152602001600020600101600660008b815260200190815260200160002060030154600660008c815260200190815260200160002060040160009054906101000a900460ff16600660008d8152602001908152602001600020600601546114b58d6113c9565b600660008f8152602001908152602001600020600201868054600181600116156101000203166002900480601f0160208091040260200160405190810160405280929190818152602001828054600181600116156101000203166002900480156115605780601f1061153557610100808354040283529160200191611560565b820191906000526020600020905b81548152906001019060200180831161154357829003601f168201915b50505050509650858054600181600116156101000203166002900480601f0160208091040260200160405190810160405280929190818152602001828054600181600116156101000203166002900480156115fc5780601f106115d1576101008083540402835291602001916115fc565b820191906000526020600020905b8154815290600101906020018083116115df57829003601f168201915b50505050509550808054600181600116156101000203166002900480601f0160208091040260200160405190810160405280929190818152602001828054600181600116156101000203166002900480156116985780601f1061166d57610100808354040283529160200191611698565b820191906000526020600020905b81548152906001019060200180831161167b57829003601f168201915b505050505090509650965096509650965096509650919395979092949650565b600080826004600085815260200190815260200160002060010160009054906101000a900473ffffffffffffffffffffffffffffffffffffffff1680905091509150915091565b60003373ffffffffffffffffffffffffffffffffffffffff1631905090565b6000806000905060008090505b6003548110156117ac5783600760008381526020019081526020016000206002015414801561179357506001600281111561176257fe5b6007600083815260200190815260200160002060030160009054906101000a900460ff16600281111561179157fe5b145b1561179f576001820191505b808060010191505061172b565b5080915050919050565b60608060008060008060606117f1600460008b815260200190815260200160002060030160008a815260200190815260200160002054611423565b965096509650965096509650965092959891949750929550565b60008090505b600154811015611898573373ffffffffffffffffffffffffffffffffffffffff166005600083815260200190815260200160002060000160009054906101000a900473ffffffffffffffffffffffffffffffffffffffff1673ffffffffffffffffffffffffffffffffffffffff16141561188b5750611940565b8080600101915050611811565b5060405180604001604052803373ffffffffffffffffffffffffffffffffffffffff16815260200160015481525060056000600154815260200190815260200160002060008201518160000160006101000a81548173ffffffffffffffffffffffffffffffffffffffff021916908373ffffffffffffffffffffffffffffffffffffffff16021790555060208201518160010155905050600180600082825401925050819055505b565b60015481565b6006602052806000526040600020600091509050806000018054600181600116156101000203166002900480601f0160208091040260200160405190810160405280929190818152602001828054600181600116156101000203166002900480156119f45780601f106119c9576101008083540402835291602001916119f4565b820191906000526020600020905b8154815290600101906020018083116119d757829003601f168201915b505050505090806001018054600181600116156101000203166002900480601f016020809104026020016040519081016040528092919081815260200182805460018160011615610100020316600290048015611a925780601f10611a6757610100808354040283529160200191611a92565b820191906000526020600020905b815481529060010190602001808311611a7557829003601f168201915b505050505090806002018054600181600116156101000203166002900480601f016020809104026020016040519081016040528092919081815260200182805460018160011615610100020316600290048015611b305780601f10611b0557610100808354040283529160200191611b30565b820191906000526020600020905b815481529060010190602001808311611b1357829003601f168201915b5050505050908060030154908060040160009054906101000a900460ff16908060050154908060060154905087565b60008090505b600054811015611cea573373ffffffffffffffffffffffffffffffffffffffff166004600083815260200190815260200160002060010160009054906101000a900473ffffffffffffffffffffffffffffffffffffffff1673ffffffffffffffffffffffffffffffffffffffff161415611cdd5760066000838152602001908152602001600020600301543410611cd7576040518060800160405280600354815260200182815260200183815260200160006002811115611c2257fe5b81525060076000600354815260200190815260200160002060008201518160000155602082015181600101556040820151816002015560608201518160030160006101000a81548160ff02191690836002811115611c7c57fe5b02179055509050507f350df6fcc944b226b77efc36902e19b43c566d75173622086e809d46dfbc222060035483604051808381526020018281526020019250505060405180910390a160016003600082825401925050819055505b50611cec565b8080600101915050611b65565b505b50565b60076020528060005260406000206000915090508060000154908060010154908060020154908060030160009054906101000a900460ff16905084565b6000806000806000905060008090505b600254811015611d7f578560066000838152602001908152602001600020600601541415611d7257611d6d816113c9565b820191505b8080600101915050611d3c565b50846005600087815260200190815260200160002060000160009054906101000a900473ffffffffffffffffffffffffffffffffffffffff1682819150935093509350509193909250565b60005481565b60008090505b600054811015611e5d573373ffffffffffffffffffffffffffffffffffffffff166004600083815260200190815260200160002060010160009054906101000a900473ffffffffffffffffffffffffffffffffffffffff1673ffffffffffffffffffffffffffffffffffffffff161415611e505750611f15565b8080600101915050611dd6565b50604051806060016040528060005481526020013373ffffffffffffffffffffffffffffffffffffffff168152602001600081525060046000805481526020019081526020016000206000820151816000015560208201518160010160006101000a81548173ffffffffffffffffffffffffffffffffffffffff021916908373ffffffffffffffffffffffffffffffffffffffff16021790555060408201518160020155905050600160008082825401925050819055505b565b60035481565b600860009054906101000a900473ffffffffffffffffffffffffffffffffffffffff1673ffffffffffffffffffffffffffffffffffffffff163373ffffffffffffffffffffffffffffffffffffffff1614611f7757600080fd5b6040518060e001604052808681526020018581526020018481526020018381526020016001151581526020016002548152602001828152506006600060025481526020019081526020016000206000820151816000019080519060200190611fe092919061233b565b506020820151816001019080519060200190611ffd92919061233b565b50604082015181600201908051906020019061201a92919061233b565b506060820151816003015560808201518160040160006101000a81548160ff02191690831515021790555060a0820151816005015560c0820151816006015590505060016002600082825401925050819055505050505050565b60056020528060005260406000206000915090508060000160009054906101000a900473ffffffffffffffffffffffffffffffffffffffff16908060010154905082565b60025481565b600181141580156120ef57507fffffffffffffffffffffffffffffffffffffffffffffffffffffffffffffffff8114155b156120f957612213565b60008090505b600054811015612211573373ffffffffffffffffffffffffffffffffffffffff166004600083815260200190815260200160002060010160009054906101000a900473ffffffffffffffffffffffffffffffffffffffff1673ffffffffffffffffffffffffffffffffffffffff1614156122045760008090505b600354811015612202578160076000838152602001908152602001600020600101541480156121bd5750836007600083815260200190815260200160002060020154145b156121f55782600660008681526020019081526020016000206007016000848152602001908152602001600020819055505050612213565b8080600101915050612179565b505b80806001019150506120ff565b505b5050565b60046020528060005260406000206000915090508060000154908060010160009054906101000a900473ffffffffffffffffffffffffffffffffffffffff16908060020154905083565b60008060008084600760008781526020019081526020016000206001015460076000888152602001908152602001600020600201546007600089815260200190815260200160002060030160009054906101000a900460ff1693509350935093509193509193565b6040518060e001604052806060815260200160608152602001606081526020016000815260200160001515815260200160008152602001600081525090565b60405180608001604052806000815260200160008152602001600081526020016000600281111561233557fe5b81525090565b828054600181600116156101000203166002900490600052602060002090601f016020900481019282601f1061237c57805160ff19168380011785556123aa565b828001600101855582156123aa579182015b828111156123a957825182559160200191906001019061238e565b5b5090506123b791906123bb565b5090565b6123dd91905b808211156123d95760008160009055506001016123c1565b5090565b9056fea265627a7a723158205b55a44a8baf0694a3eb96fec6ca28e89dee4e4fae3a6ef858e762281dcc8e5564736f6c634300050c0032",
  "source": "pragma solidity ^0.5.11;\n\ncontract CodeContract {\n    uint256 public buyerCount = 0;\n    uint256 public sellerCount = 0;\n    uint256 public productCount = 0;\n    uint256 public transactionCount = 0;\n    \n    \n    mapping(uint => Buyer) public buyers;\n    mapping(uint => Seller) public sellers;\n    mapping(uint => Product) public products;\n    mapping(uint => Transaction) public transactions;\n    \n    address owner;\n    address payable wallet;\n    \n    struct Buyer {\n        uint   id;\n        address payable public_address;\n        uint purchaseCount;\n        mapping(uint => uint) purchases;\n    }\n\n    struct Seller {\n        address payable public_address;\n        uint id;\n    }\n\n    struct Product {\n        string name;\n        string description;\n        string img;\n        uint  price;\n        bool active;\n        uint id;\n        uint seller_id;\n        mapping(uint => int) ratings;\n    }\n\n    enum State {Pending, Success, Fail}\n\n    struct Transaction {\n        uint id;\n        uint buyer_id;\n        uint product_id;\n        State state;\n    }\n\n    event Purchase(uint transaction_id, uint product_id);\n\n    constructor() public {\n        owner = msg.sender;\n        wallet = msg.sender;\n    }\n\n    modifier onlyOwner() {\n        require(msg.sender == owner);\n        _;\n    }\n\n    function buyProduct(uint product_id) public payable {\n        for (uint i = 0; i < buyerCount; i++) {\n            if (buyers[i].public_address == msg.sender) {\n                if(msg.value >= products[product_id].price) {\n                    transactions[transactionCount] = Transaction(transactionCount, i, product_id, State.Pending);\n                    emit Purchase(transactionCount, product_id);\n                    transactionCount += 1;\n                }\n                return;\n            }\n        }\n    }\n\n    function approveTransaction(uint transaction_id) public onlyOwner{\n        // Add purchase to user purchase list\n        Buyer storage b = buyers[transactions[transaction_id].buyer_id];\n        b.purchases[b.purchaseCount] = transactions[transaction_id].product_id;\n        b.purchaseCount += 1;\n\n        // Send money and update transaction list\n        Product memory p = products[transactions[transaction_id].product_id];\n        sellers[p.seller_id].public_address.transfer(p.price);\n        transactions[transaction_id].state = State.Success;\n    }\n\n    function cancelTransaction(uint transaction_id) public onlyOwner{\n        Transaction memory p = transactions[transaction_id];\n        buyers[p.buyer_id].public_address.transfer(products[p.product_id].price);\n        transactions[transaction_id].state = State.Fail;\n    }\n\n    function updateRating(uint product_id, int score) public {\n        if(score != 1 && score != -1) {\n            return;\n        }\n\n        for (uint i = 0; i < buyerCount; i++) {\n            if (buyers[i].public_address == msg.sender) {\n                for (uint j = 0; j < transactionCount; j++) {\n                    if (transactions[j].buyer_id == i && transactions[j].product_id == product_id) {\n                        products[product_id].ratings[i] = score;\n                        return;\n                    }\n                }\n            }\n        }\n    }\n\n    function getProductRating(uint product_id) public view returns (int){\n        int score = 0;\n        for (uint i = 0; i < buyerCount; i++) {\n            score += products[product_id].ratings[i];\n        }\n        return score;\n    }\n\n    function getProductById(uint product_id) public view returns (string memory,string memory,uint,bool,uint,int, string memory) {\n        return (products[product_id].name, products[product_id].description, products[product_id].price, products[product_id].active, products[product_id].seller_id, getProductRating(product_id), products[product_id].img);\n    }\n\n    function getNumOfPurchase(uint product_id) public view returns (int) {\n        int count = 0 ;\n        for (uint i = 0; i < transactionCount; i++) {\n            if(transactions[i].product_id == product_id && transactions[i].state == State.Success) {\n                 count += 1;\n            }\n        }\n        return count;\n    }\n\n    function getBuyerById(uint buyer_id) public view returns (uint,address) {\n        return (buyer_id, buyers[buyer_id].public_address);\n    }\n\n    function getProductPurchased (uint buyer_id, uint purchaseCount) public view returns (string memory,string memory,uint,bool,uint,int,string memory) {\n        return getProductById(buyers[buyer_id].purchases[purchaseCount]);\n    }\n\n    function getSellerById(uint seller_id) public view returns (uint,address,int) {\n        int score = 0;\n        for (uint i = 0; i < productCount; i++) {\n            if(products[i].seller_id == seller_id) {\n                score += getProductRating(i);\n            }\n        }\n        return (seller_id, sellers[seller_id].public_address, score);\n    }\n\n    function getTransactionById(uint transaction_id) public view returns (uint,uint,uint,State) {\n        return (transaction_id, transactions[transaction_id].buyer_id, transactions[transaction_id].product_id, transactions[transaction_id].state);\n    }\n\n    function registerBuyer() public {\n        for (uint i = 0; i < buyerCount; i++) {\n            if (buyers[i].public_address == msg.sender) {\n                return;\n            }\n        }\n\n        buyers[buyerCount] = Buyer(buyerCount,msg.sender, 0);\n        buyerCount += 1;\n    }\n\n    function registerSeller() public {\n        for (uint i = 0; i < sellerCount; i++) {\n            if (sellers[i].public_address == msg.sender) {\n                return;\n            }\n        }\n\n        sellers[sellerCount] = Seller(msg.sender,sellerCount);\n        sellerCount += 1;\n    }\n\n    function registerProduct(string memory name, string memory description, string memory img, uint price, uint seller_id) public onlyOwner {\n        products[productCount] = Product(name, description, img, price, true, productCount, seller_id);\n        productCount += 1;\n    }\n\n    function getBalance() public view returns(uint256) {\n        return address(this).balance;\n    }\n\n    function getMyBalance() public view returns(uint256) {\n        return msg.sender.balance;\n    }\n}",
  "sourcePath": "/Users/trido/Downloads/eth-voting-dapp/contracts/CodeContract.sol",
  "compiler": {
    "name": "solc",
    "version": "0.5.12+commit.7709ece9.Emscripten.clang"
  },
  "schemaVersion": "3.0.18",
  "updatedAt": "2019-11-19T05:30:36.520Z",
  "networkType": "ethereum",
  "devdoc": {
    "methods": {}
  },
  "userdoc": {
    "methods": {}
  }
}